:1000000000000420750300005D0300005F03000092
:1000100061030000630300006503000000000000AE
:100020000000000000000000000000006703000066
:1000300069030000000000006B0300006D03000076
:10004000ED30000029450200ED3500006F0300008F
:100050006F0300006F030000413400006F030000D5
:100060006F0300006F0300006F0300006F030000C8
:100070006F030000013700006F0300006F030000F2
:100080006F030000E91A00006F0300006F03000017
:10009000851B00006F0300006F0300006F0300006A
:1000A0006F0300006F030000F13800006F030000D1
:1000B0006F0300006F03000000000000000000005C
:1000C0006F0300006F0300006F0300006F03000068
:1000D0001D6702006F0300006F0300006F03000044
:1000E0006F0300006F0300006F03000000000000BA
:1000F000000000006F030000000000006F0300001C
:1001000000000000000000000000000000000000EF
:1001100000000000000000000000000000000000DF
:1001200000000000000000000000000000000000CF
:1001300000000000000000000000000000000000BF
:1001400000000000000000000000000000000000AF
:10015000000000000000000000000000000000009F
:10016000000000000000000000000000000000008F
:10017000000000000000000000000000000000007F
:10018000000000000000000000000000000000006F
:10019000000000000000000000000000000000005F
:1001A000000000000000000000000000000000004F
:1001B000000000000000000000000000000000003F
:1001C000000000000000000000000000000000002F
:1001D000000000000000000000000000000000001F
:1001E000000000000000000000000000000000000F
:1001F00000000000000000000000000000000000FF
:10020000354936480A1A02D0072291438D463449AF
:1002100034480A1A06D00722914381F30988022242
:1002200082F3148830483149314A00F044F83148AB
:100230003149324A00F03FF831483249324A00F041
:100240003AF832483249334A00F035F832483349F7
:10025000334A00F030F833483349344A00F02BF881
:1002600033483449344A00F026F8344834490022EF
:1002700000F02CF833483449002200F027F83348C6
:100280003349091A082902DB002202604160314A21
:1002900090471F481F49884205D00268043003B4C4
:1002A000904703BCF7E700208646EC46002000217B
:1002B000294A9047FEE7884207D0521A05D00378B2
:1002C00001300B700131013AF9D17047884202D0F8
:1002D00002700130FAE770470000042000E00320BC
:1002E0000000042000000420CC9402008C000020B8
:1002F00040030020D4030000D4030000826C0200FD
:10030000CC9402008C0000208C000020C86D0200FC
:10031000C86D0200C86D0200C86D0200C86D020001
:10032000C86D0200C86D0200C86D0200C9940200C9
:10033000809702004003002040030020400300207B
:100340003E47002040470020404700204047002013
:10035000406700209D03000015480000FEE7FEE70F
:10036000FEE7FEE7FEE7FEE7FEE7FEE7FEE7FEE765
:10037000704700BF1048804710484FF0070188437E
:1003800085460F4880470F48016841F470010160BD
:10039000BFF34F8FBFF36F8FFFF732BF0A480B4990
:1003A0000B4A884207D0521A05D0037801300B70EF
:1003B0000131013AF9D170477103000000000420B7
:1003C000D149000088ED00E03C6D020000000020F3
:0403D0008C0000207D
:1003D400F0B595B01C46164608460D4602F0D2FA12
:1003E4001A9B0D93CDE9086400242346082205A92D
:1003F40028460A948DF82C400C9402F0E0FA079BEE
:100404000293069B03939DF814308DF8114003F07A
:100414000302012A1DD1BDF81440059EC3F3C20393
:10042400C4F383148DF81030A20008230EA92846C3
:1004340002F0C5FAC6F3952608AB0093224602AB38
:100444000EA9304600F0ECFC284602F09FFA15B0E5
:10045400F0BD022AF8D1BDF81640C3F3C203A409C3
:100464008DF810300827082C264628BF08263B465E
:1004740032460EA9284602F0A2FAA41B08AB02AA2F
:1004840031460EA8374400F02FFD002CEBD1DBE7FA
:10049400014B01221A70704781030020704700004D
:1004A40070B50F4D06460FCD88B06C460FC495E865
:1004B4000F00002E84E80F004FF006030093094A52
:1004C40009484FF0805308BF00226946069302F0A2
:1004D400E9FC08B101F094FA044B1E7008B070BD39
:1004E400C86D0200950400008C0000204003002029
:1004F40007B5044B0093044A4023FFF769FF03B098
:100504005DF804FB110500004103002038B50D4BD4
:100514000D4D002018700D4804782D5DD2B21C4694
:1005240065B1043003F03AFE08B101F069FA084BF2
:100534001A7812B12378002BFBD038BD0C3003F0AD
:1005440015FCF1E781030020880C00208C000020BA
:100554004003002008B50848084A0378D35C3BB13F
:10056400043003F0C5FD0020BDE80840FFF798BF44
:100574000C3003F0A5FBF6E78C000020880C00206B
:100584000120FFF78DBF000008B5FFF7F9FF042134
:10059400034800F0ABFB034B01225A7108BD00BFB6
:1005A400146D0200A0000020037813F0040216D09A
:1005B40003F00303012B03D0022B09D00120704761
:1005C4000A6800880232C0F3831002440A60F5E727
:1005D4000B684288023303EB92130B60EEE710467C
:1005E400704700002DE9F04F044685B0851C0020BB
:1005F4000F46904601F0C4FC454806683E60D0E9C9
:100604000132134401339B1B824600F21C4600F561
:10061400836900F21447AB421AD30022B8F1000FE9
:100624006FD0052363F3070264F38912DAF800102C
:10063400DAF808300B4003330D444AF82320002035
:10064400CAF8005001F09EFC012005B0BDE8F08F0F
:100654000121304601F0DEFC484601F0F4FC384646
:1006640001F0F1FCDAF80400DAF808B0009000EACE
:100674000B0003300AEB80006946FFF795FF009BEF
:1006840050BB0BEA03020AEB820203F1020CD268AC
:100694000192013303EA0B0B0AEB8B0B02F003020A
:1006A400012ACDF800C0DBF80C1022D0022A16D0A3
:1006B4008346384601F0CAFC10B1009BCAF80430E6
:1006C4005946304601F0A6FCDAE901231344DAF86E
:1006D400002001339B1A9EE70BEA0300C9E7BDF82B
:1006E40006309B0903334FEA114B0CEB9303009341
:1006F400DFE7BDF80430C3F383134FEA114B6344BF
:10070400F5E7062363F3070264F39F528EE700BF05
:100714005404002030B50A4B0A4A0B49D21AD208B5
:1007240000239A4201D1052006E031F823500468E1
:10073400A54202D10360002030BD0133F1E700BFC0
:100744009C6C0200146D0200000000202DE9F84F9B
:10075400224B2348FF229A600022C3F81824C3E9DD
:100764000022C3F8142483F8202402F0C4F881463C
:1007740088B91C481C4E1D4CDFF87CA002F02CFAF2
:10078400A41BE4084D46A54208D10023184A194881
:100794001946A3421BD14846BDE8F88F4FF0000824
:1007A400474606EBC50BBD420AD0142256F8371053
:1007B400DBF8000004F078FB0028C8BF08F101084A
:1007C4000137BC42EFD12AF825800135DBE720F858
:1007D400231042F8041B0133DBE700BF540400205C
:1007E400246D0200086E02009C6C0200146D02006D
:1007F4003C000020020000200000002007B501900A
:1008040031B9019A064B53F8320003B05DF804FB8A
:1008140001A8FFF77FFF0028F3D00020F5E700BF11
:100824009C6C0200094B013903EBC000032909D871
:10083400DFE801F00A0204060420704700797047DB
:100844004079704700207047022070479C6C02007A
:1008540030B5114C00EB400054F82150824007237E
:1008640083406A401A400D4B6A40C2F3821044F838
:10087400212003EB8101C2F3C203834238BF034644
:10088400C2F34220834202F0070238BF03469A4271
:1008940038BF1A464A8030BD3C00002000000020CA
:1008A400034BD3E90030C31A58425841704700BF84
:1008B400540400202DE9F04F85B0FFF7F1FF064600
:1008C400002840F016818C4DC5F81804BFF34F8FF3
:1008D4006868AC6800902040033005EB80006946EE
:1008E400FFF762FE009B18B1D5F81824002A66D0E1
:1008F40004EA0302991C013305EB8202234005EB51
:100904008303D268DB68029302F00303022B019293
:10091400009169D1BDF8063078489DF804604FEA2B
:10092400931ABAF1500FD14628BF4FF0500969F31A
:100934008F1309F10801ADF8063001F0F4FFC6F396
:10094400C2068046002800F0BB8002F01BF801A913
:1009540000230822404602F028F8009924EA0107FF
:100964000137BF00B94538D95FFA89F997B3FFB2A7
:10097400A9EB0709214003315FFA89FBB946604FAF
:1009840005EB810108234A46404602F00EF837B1D0
:1009940009F108035A463946404602F006F8009B1E
:1009A4000AF1030A03EB9A030093D5F81834002BD9
:1009B40050D1D5F81044DFF85C9107276FE02A681E
:1009C4009A4204D86A60304605B0BDE8F08F04EA64
:1009D400030081E74A49BB46D4E721400331082399
:1009E4004A4605EB8101D7E7012B69D1BDF80460C4
:1009F4004248C6F38311062928BF062161F38916EC
:100A040002318900ADF8046001F08DFFC6F3C2061F
:100A14008046002854D001F0B5FF0023082201A924
:100A2400404601F0C2FF0027BDF80420C2F3831240
:100A3400BB00974203F10803B7D200994A1C214036
:100A44000331009205EB81010422404601F0ADFF21
:100A54000137E9E7404601F099FFFFF721FF80F0F5
:100A64000100C6B2AFE7E3685A79B2B11B79BDF8A9
:100A7400081003EB430259F8211007FA02F3052E7C
:100A840003EA010323FA02F308BF0326B34204D3A3
:100A9400236841461B6820469847E3681C68002C7D
:100AA400E1D1404601F072FF204601F069FAD5F821
:100AB40018340BB9009B6B60002001F063FACCE79B
:100AC400D5F8104474B90F4B5B88012BC5D90E4B74
:100AD4000E480F49C01AC008000440F0020000F09C
:100AE40073F8BAE7236820469B689847E3681C6854
:100AF400E8E7002667E700BF54040020246D0200E5
:100B0400600400201C0000209C6C0200D46C0200D5
:100B1400146E02003C0000202DE9F74F284C80465B
:100B24000F46924601A9012218469B46D4F8089024
:100B3400FFF758FD80B3019D0026A91C5E4506EB16
:100B4400010233D100211F4801F02EFA80F3100076
:100B54006A1C02EA090204EB8202000405EA0903A2
:100B6400033340EA1840D06014F8232068F3C50228
:100B740004F8232034F8232066F3891224F8232070
:100B840054F8232067F39F2244F8232002F0F8024C
:100B940042F0010204F8232094F820341BB1FFF73B
:100BA40089FE0028FBD103B0BDE8F08F09EA0202F8
:100BB40004EB82025AF82630D3600136BEE700BF48
:100BC400540400207008002000231A46FFF7A4BF35
:100BD40007B50123019201AAFFF79EFF03B05DF858
:100BE40004FB07B5CDE9002302236A46FFF794FF0F
:100BF40003B05DF804FB1FB5CDE90123069B039305
:100C040001AA0323FFF788FF05B05DF804FB1FB5B5
:100C1400CDE90023069B0293079B03936A460423B2
:100C2400FFF77AFF05B05DF804FB00002DE9F347F8
:100C340080462C4CD01C8A46174601A90022800805
:100C4400A568FFF7CFFCC8B3DDF80490A66809F1E6
:100C54000200019001362840361AB6000330B7422C
:100C640004EB800034D83A46514604F03DF90021A3
:100C74001D4801F099F980F3100009F101032B409C
:100C840004EB83034FEA184242EA0042DA6005EAC1
:100C94000903033304EB830214F8231068F3C5013A
:100CA40004F82310518867F38F11518034F82320FE
:100CB40002F0380242F0020224F8232094F820348F
:100CC4001BB1FFF7F7FD0028FBD102B0BDE8F087A8
:100CD4003246514604F008F9BA1B0AEB060104F146
:100CE4000C00C2E754040020700800201C4A2DE9BF
:100CF400F843D2F81034074688460024194689B9C7
:100D0400F9680C71A3B9C2F810740B60154B164D39
:100D1400ED1AED08002603F10709AE420DD1204675
:100D2400BDE8F883C9680879A04212D00968E6E7EB
:100D3400DB681A680A601F60E8E719F83620FB6868
:100D44004245314628BF42461879FFF781FD0136F6
:100D5400E3E701340A2CD1D14FF0FF34DFE700BFC1
:100D6400540400209C6C0200146D0200037A052BCD
:100D740010B50C460FD0437A23B1084A08492046DF
:100D840001F0C1F90749204601F0BDF92046BDE84C
:100D9400104001F0ADB9002AF8D0F3E76F6E0200FD
:100DA400746E0200946E0200C38873B504460D4647
:100DB40033B1144A00921449144A284601F0A3F9A5
:100DC400217A05291CD0637A4BB1A088FFF72AFD4C
:100DD4000F4B104953F82020284601F094F9227A49
:100DE4000D4BA08853F822600021FFF707FD0B4943
:100DF40003463246284602B0BDE8704001F083B98C
:100E040002B070BD6F6E02007F6E0200776E02004A
:100E14003C6E0200746E0200A46E0200976E020023
:100E24002DE9F04385B01F460C9D002306460C4671
:100E3400904695F80C902B7329463846FFF7B4FF7B
:100E4400B8F1060F09D8DFE808F00412181F283398
:100E540040003146284601F056F90022294638461A
:100E6400FFF784FF85F80C9005B0BDE8F083226895
:100E74003146284601F047F9EFE7D4E9002331462B
:100E8400284601F040F9E8E7A36800933146D4E925
:100E94000023284601F037F9DFE7E3680193A368EC
:100EA40000933146D4E90023284601F02CF9D4E715
:100EB40023690293E3680193A36800933146D4E95C
:100EC4000023284601F01FF9C7E7636903932369E8
:100ED4000293E3680193A36800933146D4E90023A5
:100EE400284601F010F9B8E708292DE9F84F8046A3
:100EF4000E4617461C463AD8002593F80C901D73ED
:100F040019461046FFF750FFDFF884A0DFF884B0DD
:100F1400AE422ED918F805205946204601F0F3F8C0
:100F24000135082DF4D11849DFF86CB0204601F0E2
:100F3400EAF84FF0000A564520D918F80A507E2DD9
:100F440003D8284603F03CFF00B92E252A4659460B
:100F5400204601F0D8F80AF1010ABAF1080FEAD1E3
:100F6400012221463846FFF701FF84F80C90BDE8C2
:100F7400F88F5146204601F0C6F8D1E703492046D0
:100F840001F0C1F8E7E700BF6A6E0200686E020074
:100F9400666E0200606E02006C6E0200074B1B5C02
:100FA4001F2B8ABF064A4FF0A04203F01F03D2F85A
:100FB4000405D840C04300F001007047096F0200E7
:100FC40000030050074B1B5C1F2B86BF03F01F035D
:100FD40005494FF0A041012202FA03F3C1F80C3590
:100FE400704700BF096F020000030050074B1B5CF1
:100FF4001F2B86BF03F01F0305494FF0A0410122B8
:1010040002FA03F3C1F80835704700BF096F020004
:101014000003005008B50020FFF7E8FF0120FFF7A8
:10102400E5FF0220FFF7E2FF0320BDE80840FFF7D9
:10103400DDBF08B50020FFF7C5FF0120FFF7C2FFA1
:101044000220FFF7BFFF0320BDE80840FFF7BABF47
:101054000A4B185C1F288ABF094B4FF0A04300F0CD
:101064001F00D3F804250121814021EA02000A402F
:10107400C3F80805C3F80C25704700BF096F0200C8
:10108400000300500B2809D00C2809D0182809D0D7
:1010940019280CBF03204FF0FF3070470020704721
:1010A4000120704702207047C20710B504460CD5D2
:1010B4004FF0A0430322C3F83427C3F83827C3F8FA
:1010C4003C27C3F84027FFF7A5FFA3070AD54FF035
:1010D400A0430C22C3F82C27C3F83027C3F8602799
:1010E400C3F8642710BD000010B50D49A1F50E72B8
:1010F400914201D800200FE08B1ADB1003EBD3736D
:101104005B1002EBC30452F83330834205DC02DA8D
:1011140004F10802ECE7606810BD2146E8E700BF6F
:10112400A476020008B5FFF7DFFF024B002808BFD2
:10113400184608BD0D6F020007B5002301938DF812
:1011440003300DF1030001F061FE9DF80330032B21
:10115400F7D904210DEB010001F062FE18B90198E2
:1011640003B05DF804FB0020FAE708B500F0A6FA26
:1011740000F0A4F8002001F019FE10B100F0F4F81A
:10118400FCE7FFF7D9FF03F089FE01F0C9FE10B9AF
:1011940000F0EAF8FCE7BDE808400EF06FBC01F08F
:1011A40019BC08B500F0E0F8FCE762B6704772B607
:1011B4007047FFF7C1BF08B50EF070FC4FF47053D1
:1011C400584308BD38B50D4614465AB151B148B11B
:1011D40001F0EAFE2946204601F0BCFE10B900F0F9
:1011E400C3F8FCE738BDEFF30580003018BF0120D9
:1011F400704700004FF0805307B51A6E596E064BC6
:1012040002F0FF021343CDE900130822694603F0FC
:101214006BFE03B05DF804FB0036CEF40048704763
:1012240010090020704708B506F000FE437B1BB18F
:10123400BDE8084001F0E4BB08BD000008B521F09A
:10124400EDFD022802D0002004F020FF01F0CEFDC5
:101254000748084A0378D35C33B1043002F048FFEE
:10126400BDE8084024F010B90C3002F029FDF7E77E
:101274008C000020880C002008B5002001F096FDA9
:1012840010B100F071F8FCE7FFF77AF9BDE8084007
:1012940024F0E8B810B5044670B1FFF7CFFF20463C
:1012A40000F04CFA01F0ACFB00F066FA0446FFF7DC
:1012B400E3FF002C08BF0124204610BD08B50AF046
:1012C400A3FF48B9054B1A78054B1B78134303D089
:1012D400BDE808400AF09EBF08BD00BFF902002027
:1012E400FC0200202DE9F84307460E460AF08CFF65
:1012F40058B1184C184BDFF86890DFF86880E41A8E
:10130400E408240444F003040EB9BDE8F883D9F8D2
:101314000000C0F10805B542A8BF35462A46394643
:10132400404403F0E1FDD9F800202A44082AC9F812
:1013340000202F44A6EB0506E6D1084B5B88022B60
:1013440003D941462046FFF771FC0023C9F8003059
:10135400DAE700BF0C6D02009C6C0200380000202C
:101364005C0900205409002010B50C4C226882B19D
:101374000B4B5B88022B0AD90A480B4B0B49C01A4A
:10138400C008000492B240F00300FFF74FFC0023B2
:101394002360BDE81040FFF78DBA00BF5C09002050
:1013A400380000200C6D02009C6C020054090020DF
:1013B4004FF0102358694FF08053411C1A695B6940
:1013C40008BF03FB02F070470378022B01D80AF030
:1013D4002FBF704710B5FFF7EBFF0A4C2061FFF7F2
:1013E400E7FF094B0949A0F54040E0600022204690
:1013F400C3F8082101F040F818B1BDE81040FFF728
:10140400D0BE10BD7800002060090020B078020032
:101414004FF4804070470220704708B513460A46CF
:1014240031B143B10146184603F05EFD002008BD0A
:101434006FF00A00FBE76FF00B00F8E70128F8B53E
:1014440007460C4616461D4612D80B44B3F5804F8A
:1014540011D29AB1ADB1FFF7ABFFA4F5404101EB56
:10146400873101442A46304603F03EFD0020F8BD92
:101474006FF03800FBE76FF01600F8E76FF00B0031
:10148400F5E76FF00C00F2E70128F7B507460C46C4
:1014940016461D4626D80B44B3F5804F25D23AB3E1
:1014A400AB0828D0FFF784FFA4F5404404EB87344D
:1014B40004440AF0C5FE07460028FAD10AF0B0FE3B
:1014C400214600972B4632460C4801F011F8044699
:1014D4000AF0B6FE0028FBD1201C18BF01204042B0
:1014E40003B0F0BD6FF03800FAE76FF01600F7E7CD
:1014F4006FF00B00F4E76FF00C00F1E778000020C8
:1015040001282DE9F041064626D8FFF751FF00EBEC
:101514008630A0F54044DFF84C8004F580470AF09B
:101524008FFE05460028FAD10AF07AFE2B460122E6
:101534002146404601F09CF888B90AF081FE054630
:101544000028FAD104F58054BC42E8D130460AF0B0
:101554007FFE2846BDE8F0816FF03800FAE74FF0CF
:10156400FF30F7E77800002010B5084CD4F80831B4
:1015740053B19BB22246D4F8041194F80001FFF74A
:1015840083FF0023C4F8083110BD00BF60090020A8
:101594002DE9F8431C4C1E46D4F8083181460F4609
:1015A40090466BB194F80021824207D1D4F804210B
:1015B4001A44914202D1B3F5807F01D1FFF7D4FFE1
:1015C400D4F8080118B984F80091C4F80471C0F57E
:1015D4008075B54234BFADB235464DB12A46414659
:1015E400204403F081FCD4F808312B44C4F80831BA
:1015F400761BB6B216B93046BDE8F883FFF7B4FFE0
:101604002F44A844DCE700BF6009002007B50C4B59
:1016140018680090FFF7CCFE0422A0F580410DEB82
:10162400020003F061FC042269460DEB020003F0A2
:10163400CCFBB0FA80F0400903B05DF804FB00BFB6
:10164400AA76020070B506460D461446FFF7B0FEB2
:10165400A4F57F543C3C324629462044BDE8704002
:10166400FFF7DBBE00487047B07602000249002253
:10167400C0E90012704700BF040003067047B0F5CC
:10168400A27F01D10AF0E6BD7047000010B5074CF7
:101694002378012B09D1FFF7E5FF02F0BBF8FFF730
:1016A400E1FF02F0C3F80023237010BD840A002078
:1016B400014B1878704700BF840A00201FB502A8A8
:1016C400FFF7D4FFFFF7CEFF104A02A902F02CF86F
:1016D40008B1FFF766FDFFF7C5FF0368D3F81045AF
:1016E400FFF7C0FFE2B24FF47031012421FA02F295
:1016F40002232146009402F0E4F8FFF7B3FF02F05E
:101704007BF8034B1C7004B010BD00BF83160000AF
:10171400840A002008B5084B1B780BB9FFF7CEFFED
:10172400FFF7A0FF02F0A8F828B9FFF79BFFBDE878
:10173400084002F061B808BD840A002010B50446D0
:1017440025F05EF9094B186074B1094B094A186019
:101754004FF47A70604300215860BDE81040184689
:101764009A60D96025F072B910BD00BF6C0A0020E0
:10177400700A00208116000008B525F041F9054BD8
:101784001B68C3F57973033318444FF47A73B0FBC1
:10179400F3F008BD6C0A00202DE9F04F394E87B0F4
:1017A4004FF00009384B1B785FFA89F5AB4202D839
:1017B40007B0BDE8F08F354BD3F800A01AF8350018
:1017C4000124D6E9001EA0F12002C0F1200304FA8E
:1017D40002F224FA03F3134304FA00FC009301EA2F
:1017E4000C030293009B0EEA03030393DDE9022337
:1017F40013430AEBC50B41D0009B21EA0C012EEAEE
:101804000303C6E9001301F00BFE1AF83550204912
:10181400A5F12002C5F1200304FA02F224FA03F32D
:101824001343D1E900C2AC40134004EA0C01059310
:101834000024C3B2CDE90034009A0491C5F1200319
:10184400A5F1200122FA03F302FA01F848EA030899
:101854001346AB401F46DDE90434444508BFBB4290
:101864000CD1DBF804304BB19BF801104A1E5142F5
:101874005141081A414241412846984709F101095A
:1018840090E700BFB80A0020850A0020C00A0020A3
:10189400B00A00202DE9F0418046204800F04EFBBC
:1018A400D0BB0125A8F12004C8F1200325FA03F3D5
:1018B40005FA04F41C431A4BD3E9001205FA08F59F
:1018C40001EA050602EA040756EA07001E461DD18E
:1018D400404601F0A5FD134BD3E9001288B129431A
:1018E4002243C3E90012D6E900231C430E4B0B48E4
:1018F40019681543C6E900540022BDE8F04100F020
:10190400DBBA21EA050122EA0402EAE721EA050535
:1019140022EA0404C3E90054BDE8F0818C0A0020E3
:10192400B80A0020B00A0020880A0020042A2DE901
:10193400F34105460C4616463AD901F0A1FCD8B14C
:101944001C4B1D491D601D4BDFF884801C701C4B13
:1019540000221E600023C1E900231A49C1E90023C3
:10196400013CE4B200260327FF2C0CD1164A174889
:10197400002100F08FFA03E001F04AFC0028DFD0D8
:1019840002B0BDE8F08123B205EBC30201A992784D
:101994008DF8052015F833008DF8066042468DF861
:1019A400047001F077FC013CE4B20028DCD0E7E7E6
:1019B4000720E5E7C00A0020B00A0020850A0020BD
:1019C400880A0020B80A00209D170000B87602009B
:1019D4009918000070B5084D084E00242B789C42DD
:1019E40001D3002070BD3368012113F8340001F0E5
:1019F400CDFC0134F2E700BF850A0020C00A0020B4
:101A04001FB50021039001AA44F20100CDE90111A0
:101A140004F05AFD05B05DF804FB0000094A537850
:101A240091780133DBB2994208BF002311789942BF
:101A34001FBF03705078182303FB002014BF043029
:101A440000207047C40A002037B5044600200D4624
:101A540000F096FA0DF10700FFF7E0FF90B1057072
:101A6400094B9DF8072044605A700024002000F0C0
:101A740089FA24B9054B4FF48012C3F8002120469B
:101A840003B030BD0424F1E7C40A002000E100E003
:101A9400024B4FF43C6043F001031847C076020048
:101AA40038B50C4B0C4C4FF40032C3F880200125A0
:101AB4004FF48033C4F84833C4F808336560FFF743
:101AC400E7FF064BA56000241C60FFF7E1FF044B11
:101AD4001C7038BD00E100E000100140E00B002064
:101AE400D10B0020F8B51F4B1F491B680025C1F816
:101AF4004051C1F84451C1F84851C1F84C51C1F8A2
:101B04000051C1F804514BB3D1F804451749096891
:101B1400641A24F07F442F461A68A24209D8A41AF2
:101B240015441A7CDE691AB11F74D3E90520904765
:101B3400AEB90F4A0F4B11781B788B4205D1013394
:101B4400DBB2022B08BF0023137012780A4B43F850
:101B540022500A4B4FF48012C3F80021F8BD3346DB
:101B6400DAE700BFE40B002000100140E00B002086
:101B7400DD0B0020DC0B0020D40B002000E100E092
:101B84002DE9F04FA04AA14913780978A04D994254
:101B940085B03CD00133DBB2022B08BF00231370A5
:101BA4009C4912789C4B0F6853F822003B1823F091
:101BB4007F4300220B602B6816461446944613B9E3
:101BC40042B12B6006E0196881420ED902B12B6044
:101BD400091A19604FF001082B68DFF844A2019339
:101BE4000027BEB9DFF840B266E0401A0C44D96859
:101BF400C3F800C0D3F81CE031B13A1922F07F4297
:101C0400C3E90121DE611E4601227346D7E700269F
:101C1400B046E1E73446F6697E4A63681268DFF845
:101C24000CC2A068991A21F07F41614500F2A58099
:101C340001442160012222742A680023C4E901338B
:101C4400E361002A40F0A2802C60CAE75A1C9BF88A
:101C54000210D2B291428BF8002004BF00228BF80C
:101C64000020182202FB03B31A799C68022A1CD0B4
:101C7400032A12D0012A1FD1207CE8B9D3E9031228
:101C8400A2605A69E2609A69644BA2611B78002BD6
:101C94000CBF0B4603466360BEE700222B68114667
:101CA400002B66D142B12B6006E029680A468946BA
:101CB400002A59D1002323749BF800309BF801209B
:101CC4009A42C3D12B682FB9019A9A4202D1B8F132
:101CD400000F43D0002B73D0D3F800A0504D4D4BD0
:101CE400D5F804751C68DFF848813E1B98F800306D
:101CF40026F07F4603369BB94FF48033C5F844334E
:101D0400C5F80433474B4FF400324FF00109C3F8D0
:101D140080211A60C5F80090FFF7BAFE88F8009099
:101D2400B2452CBF5444A41924F07F44C5F840455F
:101D3400D5F80435DB1B23F07F43E41B033324F085
:101D44007F44A3420AD9D5F80435C5F84035FFF7D6
:101D54009FFE344B4FF40032C3F800212F4B002276
:101D64001A7005B0BDE8F08F94422CD09146D26928
:101D74009EE719740122DB6992E7D31A23F07F43AB
:101D8400834234BFC31A0023236053E721681368D6
:101D9400994213D8591A1160E26155E7091AD869B2
:101DA4001A4638B1034618688842F7D3401A1860B7
:101DB400184613462160E061DC6112E71346F2E73E
:101DC400FFF76EFECAE74C4511D1CB692B6073B99E
:101DD400DFF840E00120CDE90212CAF80800CEF88D
:101DE40000300E4B1870FFF753FEDDE90212136842
:101DF400D269C9F81C2012B11068034413602B681F
:101E0400994218BF012755E7DC0B0020DD0B0020A9
:101E1400E40B0020E00B0020D40B0020D00B0020AA
:101E24000010014000E100E0C40A0020FEFF7F0032
:101E3400D10B002008B5FFF733FE104B00200B2216
:101E440018809A700E4B18600E4B18700E4B187059
:101E54000E4B4FF48012C021C3F8802183F8141371
:101E64001A6002F18042A2F56F22C2F8080583F8D5
:101E74001113074BD2F804251A6008BDC40A0020C8
:101E8400E40B0020DC0B0020DD0B002000E100E06F
:101E9400E00B0020074B9B784BB132B128B10368AB
:101EA400187C20B959745A6170470720704708207C
:101EB400704700BFC40A00202DE9F3411C4EB378DB
:101EC40004460D4617468BB380B304292CD94369C5
:101ED40063B3437C0020012B0CBF88464FF00008FD
:101EE40000F04EF80DF10700FFF798FDD0B1012383
:101EF4000370104B4460D3F80435C0E90487C0E98B
:101F040002359DF8073073700024002000F03AF881
:101F140024B9094B4FF48012C3F80021204602B0C3
:101F2400BDE8F0810424F0E70724F7E70824F5E787
:101F3400C40A00200010014000E100E0064A927843
:101F44003AB130B1426922B1002202740221FFF792
:101F54007BBD0820704700BFC40A002072B6024A45
:101F64001368013313607047E80B0020034A1368B9
:101F7400013B136003B962B6704700BFE80B002051
:101F8400FFF7ECBFFFF7F2BF90B200F000B807B55F
:101F9400ADF8000001916A46002144F2020004F009
:101FA40093FA03B05DF804FB50E8002F0B4640E8B9
:101FB400003C9CF0000FF7D11046704750E8002F0A
:101FC40042EA010340E8003C9CF0000FF6D11046C1
:101FD400704750E8003F43EA010240E8002C9CF0BF
:101FE400000FF6D11046704750E8002F02EA0103B3
:101FF40040E8003C9CF0000FF6D11046704750E8D2
:10200400003F03EA010240E8002C9CF0000FF6D1E7
:102014001046704750E8003F03EB010240E8002CF3
:102024009CF0000FF6D11046704750E8003FA3EB38
:10203400010240E8002C9CF0000FF6D110467047D6
:102044000121FFF7BBBF0121FFF7C3BF0021FFF749
:10205400CBBF0021FFF7D3BF10B590B1D0E9012366
:1020640001689B1ADBB20A60013BDBB2FF2B0268FA
:1020740002D10020107110BD11684C1C14600B704B
:10208400F2E70E20F7E738B504460020FFF778FFA3
:10209400226863681168994213D9481E106011F8C8
:1020A400015CE368A18A01FB0535A36811791B1A59
:1020B400DBB2994200D213710020FFF763FF284678
:1020C40038BD0025F8E738B5054600200C46FFF773
:1020D40057FF2A681368591C1160E968641AA98AB1
:1020E400B4FBF1F41C700020BDE83840FFF74ABF90
:1020F400826810B504462AB14369016800699847AB
:102104000023A36010BD0EB403B5039921B104AB41
:1021140001AA019300F074F802B05DF804EB03B077
:1021240070470A2938B504460D4602D10D21FFF740
:10213400F8FFA3682268591CA160D554D4E9013280
:102144009A4204D32046BDE83840FFF7D1BF38BDDA
:102154002DE9F84F9946DDE90A4317468246884639
:102164000A460126BA420FD24E4538BF4E4613F0F6
:10217400010B01D164B900240125B9F1010F1AD969
:1021840009F1FF397D43F8E7B2FBF7F20136E9E7DD
:102194009B070ED5B9F1000F0CBF30252025A642B0
:1021A400EAD2013C29465046FFF7BBFF002CF6D18A
:1021B400E1E72025F3E7B8FBF5F39F42E2D9DFF826
:1021C4003C90B8FBF5F3504619F8031005FB13884F
:1021D400FFF7A7FFB5FBF7F3BD4207D2BBF1000F32
:1021E40002D00CB1A64203D3BDE8F88F1D46E8E740
:1021F40020215046013CFFF794FFF2E7C676020027
:102204002DE9F74F054617468846002900F031812D
:1022140018F8011B49B92B7B002B00F02A812846B2
:1022240003B0BDE8F04FFFF763BF252940F0C0803D
:10223400002698F800302D2B424608F1010823D0DF
:10224400302B24D02B2B25D000242A2B02F1010182
:1022540023D13B681A1D1B683A601C440A46137854
:102264002E2B26D101324FF0000A104610F8011B24
:10227400A1F1300CBCF1090F1DD80A2303FB0A138A
:10228400A3F1300A0246F0E746F00106D1E746F032
:102294000206CEE746F00406CBE711F8013CA3F1B1
:1022A40030000928DBD80A2202FB0434303C0A46F9
:1022B400CBE74FF0000A12F8011B01F0FB0068287D
:1022C4009046F8D069290ED04AD8582964D006D847
:1022D40025296DD098F80030002B99D19BE763290C
:1022E40062D06429F6D13A68D2F80090111D89EAC7
:1022F400E9723960A2EBE9724FF0010B092A5BDC49
:10230400D34538BFD3462CB1B9F1000F01DB7107B7
:1023140000D5013CB20702D5BAF1000F04D0F3078F
:1023240002D4002C4ED10024B9F1000F52DAC9F1C5
:1023340000092D212846FFF7F4FE06F00302022AC5
:1023440005D1BAF1000F02D1002C47D10024CDE908
:10235400004653460A2249462846FFF7F9FEB9E7E4
:1023640073294CD014D87029B4D13B681A1D3A6033
:10237400302128461C68FFF7D4FE78212846FFF751
:10238400D0FE00220823CDE9003221461022E3E7E3
:1023940075292BD078299DD139680A1D3A60CDE979
:1023A40000465346102228E03B681A1D19783A600B
:1023B4002846FFF7B6FE8DE70A230BF1010BB2FBAB
:1023C400F3F29BE7A345AFD220212846013CFFF757
:1023D400A8FEA6E77007B0D52B21ABE7A345B6D27C
:1023E40030212846013CFFF79CFEADE73968CDE972
:1023F40000460A1D3A6053460A220968ACE73B6866
:102404001A1D3A60F107D3F8009020D4B9F1000FF7
:1024140025D0484602F0C4FD0646B44200D9C4B9EA
:1024240009F1FF3920E028460136FFF77AFE19F852
:1024340006100029F7D1A642BFF44CAF002C3FF49C
:1024440049AF20212846013CFFF76BFEF3E7002645
:10245400EDE720212846013CFFF763FEDDE74E4609
:10246400DBE72846FFF75DFE19F8011F0029F8D1C4
:1024740030E703B0BDE8F08F07B50B46A0B9154BA4
:102484005B886BB1144B1548154AC01A0E23C0085B
:102494000093144B0004144940F00100FEF7ABFB19
:1024A4000E2003B05DF804FB6BB90A4B5B88002B6C
:1024B400F6D0094B09480D4AC01AC0080E230093F0
:1024C4000004084BE7E703601B68114603B05DF89E
:1024D40004EB1847280000209C6C0200EC6C0200FE
:1024E40083770200D676020088770200FF77020025
:1024F4002DE9F3419646B0B9504B5B88002B00F0B0
:1025040095804F4B4F48504AC01AC0080E244F4B79
:10251400009400044E4940F00100FEF76CFB204695
:1025240002B0BDE8F0816AB9444B5B88002B7DD0D2
:10253400434B4448474AC01AC0080E240004009480
:10254400424BE7E7D0F800C0BCF1000F0DD13B4B84
:102554005B88002B6CD03A4B3A483F4AC01AC008FB
:10256400082400040094394BD4E76BB9334B5B88DF
:10257400002B5FD0324B3348384AC01AC0080924B4
:1025840000040094314BC5E74768D7F80480B3FBD7
:10259400F8F708FB17376FB1284B5B88002B49D03D
:1025A400274B28482E4AC01AC00809240004009466
:1025B400264BAFE78F070DD0204B5B88002B3BD019
:1025C4001F4B2048274AC01AC00810240004009456
:1025D4001E4B9FE712F0030F0CD0184B5B885BB3C4
:1025E400174B1848204AC01AC0081024000400944D
:1025F400164B8FE7C768B9420BD34C1E05691C44C0
:10260400AC4206D8DCF80C40A44602B0BDE8F04168
:1026140060470A4B5B887BB1094B0A48134AC01ACE
:10262400C008102400040094084B73E70E2476E7D6
:10263400082474E7092472E7102470E728000020B6
:102644009C6C0200EC6C020083770200E8760200C6
:102654008877020005780200F9770200B877020053
:102664000B780200357802004D7802007078020081
:10267400F7B5A0B9374B5B88002B63D0364B37488E
:10268400374AC01AC0080E24364B00940004364959
:1026940040F00100FEF7AFFA204603B0F0BDD0F8D9
:1026A40000C0BCF1000F0DD12A4B5B88002B4BD02E
:1026B400294B2A482D4AC01AC00808240004009453
:1026C400284BE4E76AB9234B5B88002B3ED0224BAE
:1026D4002248274AC01AC008092400040094214B48
:1026E400D5E74768D7F800E00EF1FF370F420CD06A
:1026F400184B5B8863B3184B18481E4AC01AC008AD
:10270400102400040094174BC1E7C768B9420CD3E6
:102714004C1E05690EFB0244AC4206D8DCF810409E
:10272400A44603B0BDE8F04060470A4B5B887BB128
:10273400094B0A48104AC01AC00810240004009427
:10274400084BA4E70E24A7E70824A5E70924A3E778
:102754001024A1E7280000209C6C0200EC6C02000D
:1027640083770200FB76020088770200F977020083
:10277400B87702000E77020034770200014B436001
:1027840000207047A4780200084670470020704774
:10279400024B1868003018BF01207047EC0B002072
:1027A40008B50248FFF755FC002008BDEC0B0020DB
:1027B40008B510461A4602F097FB002008BD000039
:1027C4002DE9F041804686B013480E4615461F4653
:1027D400FFF736FC044630B111200EE006EB04305E
:1027E40000F0F2FB0134A542F8D10B48FFF731FCAD
:1027F400D8F8083000241BB9184606B0BDE8F081AB
:10280400022268468DF80020CDE90146CDE9034552
:10281400059798472046F0E7EC0B00202DE9F0419E
:10282400804686B012480F4616461D46FFF708FC40
:102834000446D8B9AA083146384600F0DDFB0C48F6
:10284400FFF707FCD8F808301BB9184606B0BDE8F6
:10285400F08101228DF800200C9A05926846CDE99A
:102864000147CDE9036598472046EFE71120EDE7DE
:10287400EC0B00202DE9F047B0F806904479D2F82B
:1028840000A09DF8208009FB04F4043C06460AEBF2
:102894000300A0420F4688BFA4EB030A191DC2F827
:1028A40000A0B1FBF9F509FB15114DB9A9EB010421
:1028B400544528BF5446BAF1000F04D1BDE8F0874F
:1028C4003668013DF1E704317B1970182246B8F1EE
:1028D400000F0ED001461846AAEB040A02F004FBCE
:1028E400D145254436684C464FF0000128BF544674
:1028F400E1E71946F0E7FFF7AFBBF8B546790146C3
:10290400721E0546002393422D6803D30024A64279
:1029140002D8F8BD0133F6E70F682846FFF7D3FB6A
:1029240001343946F3E72DE9F843868ACD1C07467E
:10293400FFF7A9FB043E35440446B5FBF6F5F0B1B8
:102944004FF48073EDB28380C680013D07608146F9
:102954004FF00008A84512D23846FFF794FB06460C
:1029640048B163790133637108F10108C9F80000C3
:1029740007608146EEE72046FFF7BFFF3446204656
:10298400BDE8F88301210430FFF744BB10B50121F1
:1029940004460430FFF749FB10F0FF0F04D1204632
:1029A400BDE81040FFF7A9BF10BD1FB50392002278
:1029B400009203AAFFF75EFF05B05DF804FB1FB5A4
:1029C40003920122009203AAFFF754FF05B05DF8B9
:1029D40004FB0000064B10B500241C70054B1C6062
:1029E400BFF35F8F0449054800F0FFF8204610BD8F
:1029F400F80B0020FC0B0020D0780200F00B002024
:102A040008B50020FFF7BCFAF1EE103A23F09F035B
:102A1400E1EE103ABFF35F8F054B4022C3F88421E7
:102A24000020FFF7AFFA20BF40BF20BF08BD00BFA2
:102A340000E100E0026813685268934291BFD01A23
:102A440080680130801888BFC01A70472DE9F843A8
:102A540003681D685C68A54284BF83680133174618
:102A6400884694BF641B5C1BC2684168BC4206462E
:102A740005FB02110CD37A43404602F035FAB368E1
:102A84003D449D4288BF002533681D60BDE8F8833E
:102A940004FB02F94A46404602F026FAF2687168DD
:102AA4003C1B624308EB090002F01EFA33681C6009
:102AB400ECE7036881681A685B688B4234BF0133B2
:102AC4000023D31A584258417047F8B504460020F1
:102AD4000D46FFF755FA2046FFF7EBFF10B1237CB4
:102AE400002B3CD12268A66853685168B14234BFB8
:102AF40001310021516030B11168A068814234BFB6
:102B0400013100211160E2686068511E072920D854
:102B1400DFE801F004101F141F1F1F182A78C25485
:102B24002046FFF787FF23689A68824200D29860A4
:102B3400002415E02A8820F81320F1E72A6840F8D9
:102B44002320EDE7D5E9006700EBC300C0E9006787
:102B5400E6E7294602FB030002F0C6F9E0E7042495
:102B64000020FFF70FFA2046F8BD70B505460E4663
:102B7400144682B10020FFF703FA2846FFF75AFFF4
:102B8400A0420AD3224631462846FFF75FFF0024BD
:102B94000020FFF7F7F9204670BD0524F8E710B5CB
:102BA40004460020FFF7ECF920680C22002102F013
:102BB400C4F90020BDE81040FFF7E4B910B504469D
:102BC4000020FFF7DDF92046FFF734FF044600201C
:102BD400FFF7D8F9204610BD836800225A609A6036
:102BE400C3E90422DA601A6070470B684A684360DC
:102BF400934208BF0023016008BF43607047000090
:102C040038B5074C051E04F1080318BF1C46236899
:102C14002BB11A6822605B6828469847F7E738BDED
:102C2400080C002070B50A4C25787DB90948656008
:102C3400A5602561E56000F009FA064600F014FA83
:102C4400012384F820502370304670BD8526FBE7AD
:102C5400000C00202D2D000038B5134CA378054638
:102C640003F0FF0073B115B16B6801209847002091
:102C7400FFF786F9E3680133E3600020BDE83840DC
:102C8400FFF780B9FFF77CF925B1226913463BB9F8
:102C94002A602561E368002BECD100F0F7F9E9E73D
:102CA4009D42F7D01B68F2E7000C002038B5134CA6
:102CB4006378054603F0FF0073B115B16B6800201B
:102CC40098470020FFF75CF96368013363600020D4
:102CD400BDE83840FFF756B9FFF752F925B1A268AD
:102CE40013463BB92A60A5606368002BECD100F061
:102CF400DAF9E9E79D42F7D01B68F2E7000C0020FF
:102D040038B5084C0020FFF73BF96368013B63606A
:102D1400656815B900F0D4F965700020BDE8384045
:102D2400FFF730B9000C002010B530B9134B012265
:102D34005A70BDE81040FFF763BF012802D10F4A63
:102D44009070F6E7022804D10D48BDE81040FFF763
:102D5400ADBF032811D1FFF7D3FF084A002192F831
:102D6400203082F82010D269DBB232B1042B0CBFC0
:102D740003200220BDE81040104710BD000C0020C5
:102D8400140C002007B58DF807000DF10701064863
:102D9400FFF79BFE0448FFF78CFE08B100F092FC9D
:102DA40003B05DF804FB00BF846C020038B50C4D21
:102DB4002B7893B90B4B0C49002808BF184603889D
:102DC400284620F8013F00F03DFC044618B900F005
:102DD40067FC01232B70204638BD8524FBE700BF28
:102DE400740C0020EB780200892D000008B500F077
:102DF40069FC00F06FFC0348FFF7D1FE024B002290
:102E04001A7008BD846C0200740C002010B50446CE
:102E14000248FFF7D3FE207010BD00BF846C02008F
:102E240010B50A4601460448FFF79FFE044600F029
:102E340037FC204610BD00BF846C02001FB5037828
:102E44008DF800304368019383688DF80830C368B7
:102E54000393054A054B684653F8213052F8211074
:102E6400984705B05DF804FB780C0020800C002026
:102E74001FB503788DF800304368019383688DF89B
:102E84000830C3680393054A054B684653F821305C
:102E940052F82110984705B05DF804FB780C002027
:102EA400800C0020F0B5194B0678DFF870E043F889
:102EB4002620174B94460A6943F826204B7F0EF8C8
:102EC40006300C4607460FCC89B06D460FC594E812
:102ED4000F0085E80F001EF80630049653B1BCF1CC
:102EE400000F0C4A694608BF0022381D01F024F87F
:102EF40009B0F0BDBCF1000F074A694608BF0022C3
:102F040007F10C0000F008FEF2E700BF800C00207F
:102F1400780C0020412E0000752E0000880C002043
:102F2400074A084B1360084A03F110011160074A6D
:102F340003F120011160064A0120C2F804357047EC
:102F4400C40C0020940C0020900C00208C0C002059
:102F540000E00040114B10B504461868884202D0C6
:102F6400102201F0C1FF0E4B0022C3F80021012200
:102F74001A604FF08070D3F8002162B10022C3F8C8
:102F84000021084B1968A14203D01022204601F009
:102F9400ABFF012001E00138EDD110BD900C002001
:102FA40000E000408C0C0020024B014610221868FF
:102FB40001F09ABFC40C0020024AD2F80034002B5E
:102FC400FBD0704700E001400A4908B50223C1F86C
:102FD4000435BFF36F8FBFF34F8FC1F80805FFF7B8
:102FE400EBFF0023C1F80435BFF36F8FBFF34F8F9E
:102FF40008BD00BF00E001400E4B10B50124C3F82A
:103004000445BFF36F8FBFF34F8F01EB8204401A67
:10301400A14208D1074B0022C3F80425BFF36F8FE8
:10302400BFF34F8F10BD431851F8042B1A60FFF7FC
:10303400C3FFEDE700E0014000F18040002382B0CF
:10304400036003680193019B02B07047054A13793A
:103054002BB9012110609371918018467047852027
:10306400704700BFC80C0020074B1A68D2075FBF27
:10307400C02283F8002301221A604FF0804300220B
:10308400C3F81825704700BF00E100E008B54FF40D
:103094008270FFF7D1FF4FF080430222C3F804236C
:1030A40001229A6008BD08B54FF48070FFF7C4FF91
:1030B4004FF080430122C3F804231A6008BD0000C6
:1030C400074B01221A604FF08042D2F80C3403F00F
:1030D4000113B3F1011FF8D0024B00225A7170475B
:1030E40004000040C80C0020244B1B6810B573B1C9
:1030F4004FF48070FFF7A0FF4FF080430122C3F824
:1031040008231F4B587910B95A711B6898471D4BF7
:103114001B6863B14FF48270FFF78EFF4FF080435A
:103124000222C3F80823164B01201B689847164B4C
:103134001B6863B14FF48870FFF77EFF4FF0804344
:103144001022C3F808230E4B02201B6898470F4B2C
:103154001B6893B10E4B00221A604FF48670FFF780
:103164006BFF4FF080430821C3F80813044B03207E
:103174009A71BDE810401B68184710BD000100405B
:10318400C80C002004010040100100400C01004064
:10319400340C004000F1804000F5C040002382B0B0
:1031A400036003680193019B02B0704703681F2BFF
:1031B40083BF03F01F03036001484FF0A040704732
:1031C4000003005007B5019001A8FFF7EFFF019B32
:1031D40000EB8300D0F8002722F44032C0F8002727
:1031E400D0F8003743EA0143C0F8003703B05DF874
:1031F40004FB0000054B4FF0FF32072843F8202062
:1032040084BF1B1883F85820704700BFD00C0020DF
:1032140010B5174C94F86A3043BB04F130033021E5
:10322400FF22013911F0FF0103F8012BF9D1C8B2D3
:10323400FFF7E0FF01310C29F9D1062200210D48E6
:1032440001F07BFE0C4BC02283F8062340221A6057
:103254004FF4BE70FFF79EFF084B4FF00042C3F8D7
:103264000423012384F86A30002010BD0820FCE701
:10327400D00C0020340D002000E100E0006000408C
:10328400034B93F86A00003018BF0120704700BF59
:10329400D00C0020F7B53B4E3318054693F9303077
:1032A400002B6CDA8B78C3F34003002B0BBF08248C
:1032B40000240C200820844202D1042003B0F0BD75
:1032C40056F82470013743D1701946F8242080F849
:1032D400304013B9331983F858508B785A0717D4F0
:1032E400D80737D501A80195FFF760FF019B00EBD4
:1032F4008300D0F8003723F00203C0F800372248D7
:10330400EA0805F007070123BB40875C3B4383546D
:1033140088780A7810F0020028D0A40004F18044D0
:1033240004F5C0442D02D4F8103523F44F3323F4AC
:103334004073C4F810351204D4F8103505F47C55E4
:1033440002F4403215431D43C4F810550020B5E77C
:103354000134B0E701A84A780195FFF727FF019BE4
:1033640003F5E073920040F82320C8E7083C344496
:1033740094F8605045EA821284F860209EE70820A1
:103384009CE700BFD00C0020340D002073B5224C04
:103394002518064695F93020072A19DD224492F8AB
:1033A40058309B09032B0FD1019001A8FFF7FEFEB3
:1033B400019AD0F81035D340DB0707D402213046F8
:1033C400FFF700FF02B070BD012BF7D00321F6E731
:1033D400D3B2072BF6D8930003F1804303F5C0431F
:1033E400D3F8100540F00100C3F8100502F14000C5
:1033F400800080B2FFF7CEFE0029E3D095F930308B
:1034040054F82330002BDDD0012303FA02F2034BDE
:10341400C3F80423D6E700BFD00C002000600040AE
:1034240007B5019001A8FFF7C1FE019BD0F8100574
:10343400D84000F0010003B05DF804FB2DE9F04F23
:10344400002489B0CDE90244624D4FF48072012119
:1034540002F1804303F5C04390B21B68012B06D1EF
:10346400D5F804330B4202D0FFF794FE0C43043228
:10347400B2F5907F4FEA4101EAD1574B1B68012B0B
:103484000ED14FF4BE70FFF785FE4FF0A04344F019
:103494000044D3F810350293504BD3F810350393FE
:1034A40014F0FF0F1AD04E4F00250126344210D0DD
:1034B400AB0003F1804303F5C043D3F81005D3F800
:1034C400101557F8253023B1C1F30141C0F305208D
:1034D40098470135082D4FEA4606E7D1002C75DAE6
:1034E4000DF1100800230493C8F804304FF0FF33A3
:1034F400CDE90633DFF8E8A0DFF8E89000273D4681
:1035040019F9014B631C48D0E4B2012324F0C0062E
:1035140004F0070203FA02F2F00808AB191811F8D4
:10352400083C134239D00AEB0603A40993F930305E
:103534005AF823B0BBF1000F08D1032C2DD118F891
:1035440000C04CEA020C08F800C001E0032CF6D0DD
:1035540001A80196FFF72AFE019B11F8181C03F538
:10356400E07C114250F82C00C0F3014005D0022841
:1035740013D1032C0BD1214604E003280DD1032CD5
:1035840005D102213046FFF71DFE0135EDB2BBF136
:10359400000F02D021463046D8470137042FAFD15F
:1035A400A5B14FF0A0430299D3F8102503F5407359
:1035B4009142D3F8103502D10399994206D0029270
:1035C4000393049A059B0692079395E709B0BDE817
:1035D400F08F00BF006000407C6100400003005099
:1035E400D00C0020300D0020014B1B68184700BF91
:1035F4003C0D002038B50B4B98420D4601D00020FD
:1036040038BD0020FEF7BCFC074B1C7914B901221D
:103614001D601A710020FEF7B5FC002CEFD01120BC
:10362400EEE700BF002000403C0D0020034B984211
:1036340001BF034B00221A601A717047002000403A
:103644003C0D002010B5124C2278FAB9114B1960C8
:10365400037813F0010F104B1EBFD3F8042542F07A
:103664000102C3F80425D3F8002222F00102C3F8B2
:1036740000224378094A5B01DBB282F80D334FF430
:103684000053136001232370002010BD8520FCE744
:10369400480D0020440D002000D0004000E100E06F
:1036A400064B00221A6082B01B680193019B044BF5
:1036B4000122C3F804231A6002B0704700D100400D
:1036C40000D00040024A0123C2F808335360704717
:1036D40000D00040064A0123C2F808335360054B6A
:1036E4004FF40052C3F88020034B00221A70704735
:1036F40000D0004000E100E0480D0020074B00220C
:103704001A6082B01B680193019B054BD3F808052E
:10371400044B1B68C0B202B0184700BF00D1004080
:1037240000D00040440D0020F7B506792F4D0C233E
:103734007343EF183C7A002C55D1EA504B687B60F8
:10374400477903682246D0B2874243D81A0B54B251
:10375400C878002CA8BF04F16047D2B2BABF02F007
:103764000F0C234F07F561474FEA4010C0B2B4BFB6
:1037740007F80C0087F800036409012002F01F0217
:103784001C4F00FA02F247F824204A78D3F8044583
:1037940002F0030224F003042243C3F80425D3F8FF
:1037A40008458A7824F0030402F003022243C3F894
:1037B4000825D3F810450A7824F00F0402F00F020C
:1037C4002243C3F810250C2303FB0655287200205E
:1037D40003B0F0BD900000F5A07001321C501858E1
:1037E40001900198AFE70820F2E700BF4C0D0020DC
:1037F40014ED00E000E100E0036801221A6003799F
:10380400034A0C2101FB032302221A72704700BFF2
:103814004C0D00200368044901221A6103790C202D
:1038240000FB03131A7270474C0D00200268110B41
:1038340038B54BB201245B0901F01F0104FA01F110
:1038440020330B4C44F823100546D2F800320024F0
:103854004FF0FF33C2F80042C2F80833FFF7DAFF33
:103864002B79044A0C2101FB03231C7238BD00BFD1
:1038740000E100E04C0D00200379044A0C2101FB17
:103884000323187A831E5842584170474C0D002078
:1038940037B54FF480348C4000687BB101F150039C
:1038A4009B000025C550C3580193019BC0F80443F5
:1038B40001F5A87140F8212003B030BDC0F80843D9
:1038C400F6E770B4046840F20116D4F800528E4052
:1038D40025EA0605C4F80052D4F800522B43C4F874
:1038E40000329DF80C3070BCFFF7D2BF2DE9F341D4
:1038F400104C114F114E00254FF48038236804F505
:10390400C04080B26BB1D7F8043308FA05F21A420A
:1039140007D00023236023680193019BD6E900317B
:1039240098470135062D04F10404E7D102B0BDE83F
:10393400F08100BF40A1014000A001404C0D0020D7
:103944000023435082B043580193019B02B0704757
:103954000A4610B54FF48E71FFF7F2FF136A9168AF
:10396400C95C136A01331362C0F81C1510BD8B695E
:103974000A4610B54FF4847123B9FFF7E1FFD0F87C
:10398400183510BDFFF7DCFF536AD168D0F818056D
:10399400C854536A01335362F3E700001FB501238F
:1039A4008DF80030044BCDE90110D3E900126846CC
:1039B400904705B05DF804FB580D002030B54C4A23
:1039C400D2F8043313F4007F85B015464FD0D2F8F3
:1039D4002431002B4BD04FF492711046FFF7B0FF07
:1039E4004FF40173C2F80833424B93F8291009B914
:1039F400012151603E4902228DF80020D1F8802433
:103A0400C1F8802403929A690292DA680192002232
:103A1400C3E906226846D3E9001290473448D0F837
:103A24001C315BB133490A6A4B699A420A464BD24C
:103A340091F82830002B47D1FFF78AFF2C4AD2F89F
:103A4400443193B14FF4A2711046FFF779FF294B2B
:103A540093F8291009B1012111609A692AB1002251
:103A64009A61586AD968FFF799FF05B030BDD5F857
:103A740004335B07D2D5D5F80831002BCED01D4CCA
:103A84001B482146FFF773FF636AA2699A422346E3
:103A9400C4D1E269E1684AB12369E3600023606A42
:103AA400A261E3616362FFF779FFB7E794F8292025
:103AB4000AB901226A600E4A4FF40170C2F8080381
:103AC40000229A61586AEEE74FF48E710848FFF7B6
:103AD40037FF51690029B1D00023029191688DF814
:103AE4000030019153616846D2E900139847A5E775
:103AF40000200040580D00201F2886BF00F01F0042
:103B0400044B4FF0A04300F5E070022243F820205C
:103B1400704700BF000300502DE9F843624F047959
:103B240091462C2202FB0472064692F82A200D4686
:103B3400002A40F0B3805D490068FFF75BFD8046D2
:103B4400002840F0AE8029684A1C10D01F2987BF86
:103B540001F01F03564A0B464FF0A0420120984043
:103B640003F5E073C2F80805032042F823006868EF
:103B7400431C0DD01F288BBF00F01F0303464C4A83
:103B84004FF0A04203F5E0734FF0000C42F823C05D
:103B94003368AA6995F814C0C3F824256A7DBCF17A
:103BA400010F4CEA0202C3F86C25C3F81405C3F8EC
:103BB4000C152BD1A968481C0DD01F298BBF01F00F
:103BC4001F020A463A484FF0A04002F5E0724FF057
:103BD400000C40F822C0E868421C13D01F2887BF9D
:103BE40000F01F0C324A84464FF0A0424FF0010E01
:103BF4000EFA0CFE0CF5E07CC2F808E54FF0030E5B
:103C040042F82CE0C3F80805C3F810152C236343CD
:103C1400FA18C2F804902A69FA50B9F1000F2AD0B0
:103C24004FF48E7130682D7FFFF78AFE30684FF4B1
:103C3400A271FFF785FE32681E4BC2F80433120BE3
:103C440051B20029A8BF01F160404FEA4513BABF41
:103C5400194802F00F0500F56140DBB2B4BF4355CB
:103C640080F8003302F01F02012303FA02F249092B
:103C7400124B43F8212033680422C3F800252C2377
:103C840003FB04730022C3E9062283F829205A6146
:103C9400012283F82A204046BDE8F8834FF0080843
:103CA400F9E74FF01108F6E7580D0020C13900007C
:103CB400000300508000020014ED00E000E100E089
:103CC4002DE9F04103680479254D0022C3F800254D
:103CD4002C2202FB04520646526872B1214AC3F8F0
:103CE4000823190B4AB20120520901F01F0100FAFE
:103CF40001F120321C4840F82210D3F80C05D3F807
:103D04001485D3F80815D3F810754FF0FF3290429C
:103D1400C3F81425C3F80C25C3F80825C3F81025E7
:103D240001D0FFF7E9FEB8F1FF3F02D04046FFF7AC
:103D3400E3FE7A1C02D03846FFF7DEFE4B1C02D0AD
:103D44000846FFF7D9FE3068FFF770FC2C2303FB0D
:103D54000454002384F82A306360BDE8F08100BF76
:103D6400580D00208402020000E100E02DE9F84330
:103D7400224F06794FF02C0909FB067480466569C9
:103D8400002D37D16261A16025624FF48E71006805
:103D940084F82850FFF7D4FDD8F80000012383608D
:103DA4002146FFF7D5FD6368A1462BBBD8F8005028
:103DB400226A63699A4212D3D8F80030D3F81C21DE
:103DC400002AFBD00122DA6000202C2303FB0676B4
:103DD40000237361BDE8F88394F8283043B9D5F81B
:103DE4001C31002BF8D049462846FFF7B1FDDFE728
:103DF4000F20EAE71120EDE72846EBE7580D0020F5
:103E04000023435082B043580193019B02B0704792
:103E14001FB501238DF80030044BCDE90110D3E91F
:103E240000126846904705B05DF804FB840D00203D
:103E34007FB5374AD2F82461002E48D010464FF49B
:103E44009271FFF7DDFF02238DF80030D2F8803441
:103E5400C2F880340393D2F83C3502932D4BDA68D0
:103E640001920022C3E906226846D3E90012904772
:103E7400274AD2F844317BB14FF4A2711046FFF7C0
:103E8400BFFF244B996939B10021C3E90611D968F0
:103E9400D2F83C05FFF7BCFF1D4AD2F82031A3B18C
:103EA4004FF490711046FFF7ABFF1A4B596961B19B
:103EB400D2F84C150291002299688DF800200191E6
:103EC4005A616846D3E90012904704B070BDD2F835
:103ED4001031002BCCD04FF488711046FFF790FFBF
:103EE4000C4BD2F83C0599698842C1D1DC69D96888
:103EF40064B1D2F8005225F02005C2F800521A69C4
:103F04009C61DA60DE61FFF783FFB1E79C61FAE749
:103F140000200040840D00201F2886BF00F01F00F1
:103F2400044B4FF0A04300F5E070022243F8202038
:103F3400704700BF000300502DE9F843664F06792F
:103F44009146242202FB0672044692F820200D4674
:103F5400002A40F0BB8061490068FFF74BFB8046B4
:103F6400002840F0B6802868421C10D01F2887BF64
:103F740000F01F035A4A03464FF0A0420121994022
:103F840003F5E073C2F80815032142F823106968A9
:103F94004B1C0DD01F298BBF01F01F030B46504A49
:103FA4004FF0A04203F5E0734FF0000C42F823C039
:103FB4002368AA6995F814C0C3F824256A7DBCF166
:103FC400010F4CEA0202C3F86C25C3F80C05C3F8D0
:103FD40014152BD1A968481C0DD01F298BBF01F0E3
:103FE4001F020A463E484FF0A04002F5E0724FF02F
:103FF400000C40F822C0E868421C13D01F2887BF79
:1040040000F01F0C364A84464FF0A0424FF0010ED8
:104014000EFA0CFE0CF5E07CC2F808E54FF0030E36
:1040240042F82CE0C3F80805C3F8101524237343A1
:10403400FA18C2F804902A69FA50B9F1000F34D082
:104044004FF4887120682D7FFFF7DAFE4FF49071EA
:104054002068FFF7D5FE4FF492712068FFF7D0FE79
:1040640020684FF4A271FFF7CBFE22681D4BC2F803
:104074000433120B51B20029A8BF01F160404FEA8A
:104084004513BABF184802F00F0500F56140DBB2D2
:10409400B4BF435580F8003302F01F02012303FA32
:1040A40002F24909114B43F8212023680822C3F87E
:1040B4000025242303FB06730022C3E906225A6168
:1040C400012283F820204046BDE8F8834FF0080819
:1040D400F9E74FF01108F6E7840D0020353E0000A3
:1040E400000300501003020014ED00E000E100E0C2
:1040F4002DE9F04103680479254D0022C3F8002519
:10410400242202FB04520646526872B1214AC3F8C3
:104114000823190B4AB20120520901F01F0100FAC9
:1041240001F120321C4840F82210D3F80C05D3F8D2
:104134001485D3F80815D3F810754FF0FF32904268
:10414400C3F80C25C3F81425C3F80825C3F81025B3
:1041540001D0FFF7E1FEB8F1FF3F02D04046FFF780
:10416400DBFE7A1C02D03846FFF7D6FE4B1C02D089
:104174000846FFF7D1FE3068FFF758FA242303FB03
:104184000454002384F820306360BDE8F08100BF4C
:10419400840D00201003020000E100E001F0604300
:1041A400B3F1005F2DE9F041074632D11C4B06798B
:1041B400242505FB063598466C6964BB6A61A960D1
:1041C40000684FF49071FFF71BFE4FF4AC71386830
:1041D400FFF716FE3B686A69A968C3F84415C3F87B
:1041E400482501229A606A68BAB9D3F82011D3F835
:1041F400582149B9002AF8D00F20242303FB06864E
:1042040000237361BDE8F081002A14BF0F20002051
:10421400F3E71020F6E71120F4E72046F2E700BFA9
:10422400840D00200220FCF713BF00002DE9F047A5
:1042340081460D46FCF726FF0328044604D8012DC9
:1042440004D025B3022D2FD0BDE8F087194D4700C7
:104254003A18A918AE5C4A7852B1DFF8688016485B
:1042640042464FF40041FDF727FE08B988F8009054
:104274003B192B449A78114B1A55002EE4D0104B5D
:104284001B68002BE0D03046BDE8F04718470A48C9
:10429400FDF754FE074B04EB440213449E78074B8E
:1042A4001B5DB342D0D1E8E7024B00EB40041C4451
:1042B4006678E2E70C0E0020CC0D0020250E0020CD
:1042C400200E0020A80D002002210078FFF7AEBFC9
:1042D40008B5094B1B7853B10020FCF787FE012079
:1042E400FCF784FE0320BDE80840FCF77FBEBDE870
:1042F4000840FCF78FBE00BFA90D0020F8B57B4C29
:10430400237805461BB100232370FFF7E1FF172D27
:1043140000F28880DFE805F00C17174354657680B7
:10432400888D888D959A9A9A9A9AC4C9D1D9E4E4C9
:10433400FFF7CEFF6E48FDF701FE6E4B00220446E8
:104344001A702046F8BD0020FCF728FEF8B10020C2
:10435400FCF74CFE022D0CBF4FF4E1614FF47A617F
:10436400644B1D704FF400404FF4FA740025E0FBD9
:1043740001454FF47A7200232046294600F034FCAC
:10438400002201465A48BDE8F840FDF795BDFCF708
:1043940019FE022D0CBFC8214FF4C871E0E70020BC
:1043A400FCF7FCFD40B10020FCF720FE4FF44871FF
:1043B400504B03221A70D5E7FCF704FEC821F7E737
:1043C4000020FCF7EBFD38B10020FCF70FFE4FF4A2
:1043D4007A61484B0422EDE7FCF7F4FD4FF4C87111
:1043E400F7E70020FCF7DAFD48B10020FCF7FEFDFA
:1043F400404B05221A7041F69A110022C2E7FCF7DD
:10440400E1FDF5E70020FCF723FE3A4B06221A7083
:10441400002240F6CD41B5E70020FCF7D3FD354B33
:1044240007221A7000248CE701202070FCF710FE8C
:10443400EEE701202070FCF70BFE00224FF48041D0
:10444400A0E7FCF7F6FD2B4B0C22EAE72A482B4E9B
:10445400FDF774FDD5F1110504461CD0D8B9012D22
:1044640013D0C8235D434FF400474FF4FA70002182
:104474004FF47A720023C7FB050100F0B5FB224616
:1044840001461D48FDF718FD04460220FCF79AFD7D
:104494000123337055E70220FCF7A8FD0023F8E759
:1044A400FFF716FF134B1222BBE7FFF711FF0020A3
:1044B400FCF788FD0F4B1322B3E7FFF709FF012038
:1044C400FCF780FD0B4B1422ABE7FFF701FF002044
:1044D400FCF778FD0120FCF775FD064B1522A0E7DB
:1044E400FCF7A7FD034B1D709CE700BF1C0E0020CA
:1044F400EC0D0020240E0020AC0D0020A90D00209E
:10450400044B1B68DB0703D5034B1878FFF7F6BE93
:10451400704700BF180E0020240E002038B51C4B35
:1045240018601C4B10F00204054619601AD01A4B8F
:104534001A480E221A700F22DA7010229A71112270
:104544005A72042140F26662FDF7F0F9044648B954
:10455400FDF740FA044628B90146114A1148FDF70F
:1045640099FC0446EB0711D50120FCF79DFD6CB9BD
:1045740021460D4A0D48FDF78DFC044630B90C4A1E
:104584000C480121BDE83840FDF784BC204638BD05
:10459400180E0020200E00200C0E00202C790200A2
:1045A400CD42000050790200054500005479020014
:1045B400294200004C79020007B5204A41F2342315
:1045C40013800023CDE9002340F2024101220A2096
:1045D4000BF03AFE024668B1194B5B88022B09D9ED
:1045E4001848194B19491B1ADB081B0443F0030034
:1045F400FCF7EEFA164A41F2342313800023CDE986
:10460400002340F2054101220A200BF01DFE024660
:1046140080B10B4B5B88022B0CD90A480A4B0D491D
:104624001B1ADB081B0443F0030003B05DF804EB22
:10463400FCF7CEBA03B05DF804FB00BF5E2A00208D
:104644001C0000209C6C0200D46C020084790200DF
:104654005C2A0020AF790200F0B585B0002603A9DA
:10466400054603960FF010FE4FF48D720446314652
:10467400284607F045FB062CB0F9042016D8052C73
:10468400564E28D2032C00F08580544B5B88022BB5
:104694003BD9534B53485449C01AC008000413462D
:1046A40040F003002246FCF79CFA2EE0132C00F0A5
:1046B4009180142CE9D142B3484B5B88012B24D957
:1046C400474B48484949C01AC008000440F002005A
:1046D400FCF77AFA19E0738812BB022B09D9414816
:1046E4003F4B4349C01AC008000440F00300FCF7E4
:1046F4006BFA0220FCF766FC00224FF400413D48AF
:10470400FDF7DAFB08B1FDF77BF93DB140F2531236
:104714000021284607F0F4FA07F0D0F805B0F0BD00
:104724004BB130482E4B3449C01AC008000440F045
:104734000100FCF74DFA0220FCF758FC022000F0BF
:10474400A5FF0128E1D07388EBB1254B254C2B4FF5
:104754002B49E41AE408240444F0010440F22D1324
:104764003A462046FCF73DFA738863B10120FCF712
:10477400D9FC40F22D13CDE90073012203462149EF
:104784002046FCF744FAFCF795F80028FBD144F6E0
:104794002160B8E792B90220FCF728FC7388022B49
:1047A400B3D90F4B0F481849C01A039BC008000423
:1047B4001A7940F00300FCF70BFAA6E77388002B84
:1047C400A3D00848064B1149C01AC008000440F0A1
:1047D4000100F0E70BF0ECF897E700BF1C000020A5
:1047E4009C6C0200D46C0200227B0200F67A020068
:1047F400D3790200202B0020EF790200127A020004
:10480400737A02009E7A0200B57A0200D27A02001C
:104814007FB5FDF70FFB08B1FDF7F2F84FF4004147
:104824000020FBF793FF08B1FDF7EAF8FBF7ACFEB5
:1048340000210120FFF772FE08B1FDF7E1F8FCF753
:10484400E9FB4A4A4A480121FDF724FB08B1FDF778
:10485400D7F8484B484C00251D70484B1D80484BE9
:104864001D7007F0C5FB07F0C5FB02A8FCF7C2FCEE
:1048740002A80BF095F94FF480300BF0B7F9012042
:1048840000F080F906200AF0A3F9C3200AF0A6F983
:1048940028460BF079F929468822204600F04DFB82
:1048A400384800F099FC4FF48173238040F60A33B2
:1048B400638006223449601D00F016FB06230B2694
:1048C40023710B22314904F1250000F00DFB84F81B
:1048D400246008222E4904F1450000F005FB08235A
:1048E400324684F844302B49032304F1560084F8FB
:1048F400543000F0F9FA4FF40043A4F878304FF63E
:10490400FF7384F85560A4F8863084F86450A4F8E2
:104914007650A4F880300BF06CF945420646FDB1A0
:104924001D4B5B889BB12846FCF7FCFB1B4C1C4BC6
:104934001C49E41AE40840F28713240401931A4B37
:1049440000932A46034644F00100FCF760F9FBF7A4
:10495400B1FF0028FBD1C6F59C402030FDF750F88C
:104964000BF049F9FBF7A6FFFAE700BFBD450000CD
:1049740080790200F9020020D4290020FA020020E4
:10498400FC020020E4010020587902005F79020053
:104994006B790200747902001C000020D46C0200C0
:1049A4009C6C02009E7A0200127A0200054B1B687E
:1049B400082B01BF044B1868B0FA80F0400918BFF7
:1049C40000207047300100103401001008B54FF08A
:1049D40080430022C3F80C21C3F81021C3F8382502
:1049E4004FF0805203F54043D2F80414C3F8201565
:1049F400D2F80814C3F82415D2F80C14C3F82815F7
:104A0400D2F81014C3F82C15D2F81414C3F83015C6
:104A1400D2F81814C3F83415D2F81C14C3F840158E
:104A2400D2F82014C3F84415D2F82414C3F8481556
:104A3400D2F82814C3F84C15D2F82C14C3F8501526
:104A4400D2F83014C3F85415D2F83414C3F86015EE
:104A5400D2F83814C3F86415D2F83C14C3F86815B6
:104A6400D2F84014C3F86C15D2F84424C3F8702566
:104A7400FFF79CFF10B1384B384A1A60FFF796FFD6
:104A840018B1374BFB22C3F81825FFF78FFF48B145
:104A94003449354B0A681B6822F00F0203F00F03F8
:104AA40013430B60FFF782FF18B1304B4FF40072D1
:104AB4001A604FF08043D3F80024D20744BF6FF04C
:104AC4000102C3F800242A4AD2F8883043F4700360
:104AD400C2F88830BFF34F8FBFF36F8F4FF01023AE
:104AE400D3F80022002A03DBD3F80432002B2FDA98
:104AF400204B0122C3F80425D3F80024002AFBD05C
:104B04004FF010221221C2F80012D3F80024002A18
:104B1400FBD04FF010231222C3F80422154B1A467F
:104B2400D3F800140029FBD00021C3F80415D2F8EF
:104B34000034002BFBD0BFF34F8F0D490E4BCA68D6
:104B440002F4E0621343CB60BFF34F8F00BFFDE775
:104B54000A4B0B4A1A6008BD8C560040488103007A
:104B640000F00040E40E004058020010409602405D
:104B740000ED00E000E001400400FA05DC02002042
:104B84000090D00307B500BB124B0C22C3F82427B6
:104B94000A22D3F81015013AC1F340210191F8D14A
:104BA400019B73B90C4B5B88022B09D90B480C4B46
:104BB4000C49C01AC008000440F00300FCF704F8D4
:104BC4000120044B0222C3F8242703B05DF804EB50
:104BD4000AF0EEBF000300501C000020D46C020059
:104BE4009C6C0200427B020053EA020C61D02DE966
:104BF400F04BB3FA83F51E0007BFB2FA82F502FA4E
:104C040005F403FA05F41646C5F120051EBF22FA81
:104C140005F73C43203556EA044C4FEA144418BFC8
:104C24000134A3464FF00009C846904271EB030CCF
:104C340039D3094207BFB0FA80F700FA07F6B1FA90
:104C440081F701FA07F6C7F120071EBF20FA07FC17
:104C540046EA0C062037B6FBFBFC7F1B103F07F02F
:104C64001F04C4F120060CFA04F42CFA06F644BF1F
:104C740034460026202FA4BF2646002454EA060CFE
:104C840008BF012418EB040849EB0609A4FB027CC5
:104C9400C01B06FB02CC04FB03CC71EB0C0190425D
:104CA40071EB030CC5D20B46024649464046BDE8AB
:104CB400F08BB2FBF3F22DE9304081EA03040D4698
:104CC400002906DA6FEA00006FEA0101013041F1C0
:104CD4000001002B06DA6FEA02026FEA03030132D5
:104CE40043F10003FFF780FF002C06DA6FEA0000AF
:104CF4006FEA0101013041F10001002D06DA6FEA8B
:104D040002026FEA0303013243F1000330BD0000E5
:104D14007F2805D8034B185C034B5B5C1840704735
:104D2400002070476C7B0200EC7B0200A0F1610361
:104D3400192B98BF20387047A0F14103192B98BF55
:104D4400203070477F2805D8034B185C034B5B5C0D
:104D540018407047002070476C7B0200EC7B020017
:104D6400A0F16103192B98BF20387047A0F14103CB
:104D7400192B98BF203070477F299ABF01700120FA
:104D84006FF02E0070475AB10A787F2A0AD800B112
:104D94000260002119605960501A18BF0120704741
:104DA400002070476FF02E007047000008B5034BD9
:104DB4005B689B681B68984708BD00BFE002002041
:104DC40008B50921FFF7F2FF08BD002A36D070B4F8
:104DD40013460F2A1AD940EA010212F0030F01D038
:104DE4005A1E15E004680A689442F9D1043B041D74
:104DF4000A1D114620460434043206680D68AE428A
:104E0400EED120461146043B042BF2D85A1E10D092
:104E140004780B789C420CD1431C4C1C0244184669
:104E24002146934205D00133013406780D78AE4211
:104E3400F5D000780B78C01A70BC7047002070471A
:104E440010B488420CD98B18841832B1224613F856
:104E5400014D02F8014D9942F9D15DF8044B7047B8
:104E64008842FAD0002AF8D0431E0A4411F8014BB4
:104E740003F8014F8A42F9D1EFE70000054B1868A7
:104E8400054943F2390201FB00201860C0F30E40CB
:104E9400704700BFF40200206D4EC641014B1860FC
:104EA400704700BFF4020020E2B170B41546012A35
:104EB40013D003788BB10A789A420ED14B1C441C50
:104EC40001394A1920461946934206D014F8015B69
:104ED4001DB101330E78AE42F4D000780B78C01ABD
:104EE40070BC704700207047844640EA010313F009
:104EF400030F18D18446202A0BD32DE9F007B1E81B
:104F0400F807A0E8F807A2F12002202AF7D2BDE8AA
:104F1400F007042A07D351F8043B40F8043BA2F1FC
:104F24000402042AF7D2002A05D011F8013B00F844
:104F3400013B013AF9D1604670478446002A2DD0DE
:104F440010F0030F04D000F8011B013A26D0F7E754
:104F5400C9B241EA012141EA0141202A12D3A2F156
:104F640020022DE9F0030B460C460D460E460F4673
:104F740088468946A0E8FA03203AFBD2BDE8F0034C
:104F840020320BD0042A05D340F8041B043A05D080
:104F9400042AF9D200F8011B013AFBD1604670479C
:104FA40000F1010110F0030F11D010F8012B002AB9
:104FB40023D010F0030F0AD010F8012B002A1CD0C4
:104FC40010F0030F03D010F8012B002A15D02DE99F
:104FD40070004FF001324FF0803350F8044BA4EBD3
:104FE400020525EA04051D4000D1F6E7A0F10400FE
:104FF40070BC10F8012B002AFBD1A0EB0100704714
:1050040070B5194CB4F8FA5584F8063625F007053E
:10501400054305F0E70545F48045A4F8FA55DD019C
:10502400022845EA810134BF0226002641EAC20172
:105034003143342284F8FC1584F8FD250021122222
:1050440084F8FE2588424FF06C0284F8FF2542F66E
:10505400412218BF4FF42852A4F80016A4F80226DF
:10506400A4F8041670BD00BF902F002030B50A4D7F
:10507400B5F8074624F00F04204320F0F00040EA7E
:10508400011020F4706040EA0220C0F30B0040EAF3
:105094000330A5F8070630BD902F002070B5837942
:1050A4008B4205460C46164604D8A9214FF44960A4
:1050B40006F058FE043425F8146070BD70B5C37949
:1050C4008B4205460C46164604D8B7214FF4496076
:1050D40006F048FEAB791C44043425F8146070BD16
:1050E40070B51C4D1C4E95F80E260023082102F0C5
:1050F400F00285F80F1663F30712092185F80936C3
:10510400A5F80A36A5F80C3685F8101685F80E268B
:1051140085F84C361C4605F2096536F81420E1B2D0
:1051240028460134FFF7BAFF082CF6D10B4E0C4D7C
:105134000024325DE1B228460134FFF7BFFF092C99
:10514400F7D10C23032207210020BDE87040FFF7AC
:105154008DBF00BF902F0020AC7D0200BC7D0200FB
:105164009935002008B50A4B93F87921003218BF0D
:105174000122114601230220FFF742FF01220C23E2
:1051840011460020FFF772FFBDE80840FFF7A8BFF3
:10519400902F002007B50F4B93F84C26052A0AD808
:1051A400511C83F84C1603EB8203C3F83406002029
:1051B40003B05DF804FB0423019200934FF0FF3029
:1051C40040F219134FF4496201210AF055FB6FF0C4
:1051D4001C00EDE7902F00202DE9F7430AF0C8FDED
:1051E4000BF08CFB83681B780193042300934FF42A
:1051F400496240F2271301214FF0FF300AF03CFBD3
:1052040000260BF07BFB83681B78F4B2A3420CD816
:105214000AF0D2FD00286CD140F23F114FF44960EE
:1052240003B0BDE8F04306F09DBD0BF067FB836857
:10523400D3F8013053F82430D3F81500FFF7AAFF50
:105244000BF05CFBD0F8B030A50063B10BF056FB5B
:10525400D0F8B0700BF052FB8368D3F8013053F8E8
:1052640024301878B84700270BF048FB8368D3F83C
:1052740001305B591B7CFCB2A34201D80136C0E764
:105284000BF03CFB8368D3F801305B59D3F8113041
:10529400C4EB04142344D3F80B305BB10BF02EFBA6
:1052A4008368D3F801305B59D3F811302344D3F821
:1052B4000B3098470BF022FB8368D3F801305B591D
:1052C40093F800800BF01AFB8368D3F801305B5924
:1052D400B3F801900BF012FB8368D3F801305B59EB
:1052E400D3F811204946224440460EF051F90137C3
:1052F400BAE703B0BDE8F08313B540F219224FF4C6
:10530400D571044606F0FCFC052106F035FC0A4B79
:10531400D3F8D422026093F8DC22027193F84D266C
:1053240083F85026002300931A462146034809F0C7
:10533400FDFE02B010BD00BF902F0020E964000004
:105344002DE9F341694D95F8DD3204462E46F3B953
:1053540095F8C622402A13D095F8E522C5F8D43230
:10536400012161F3430285F8C7120146604885F8BC
:10537400E52200931A4609F0D9FE02B0BDE8F08197
:1053840085F8DD2200931A4621465A48F3E7402B5C
:1053940005D10023014600931A465748EBE7102B2A
:1053A40020D1202385F8DD3295F8C732012B08D1AE
:1053B40095F8EB32002262F3000385F8C72285F8E2
:1053C400EB3296F8E7120D29D7D096F8C7220023BE
:1053D400524220460EF088FC002300931A462146D0
:1053E4004648C8E795F8C6221A40D10705D50023D8
:1053F400014600931A464248BDE712F0020164D008
:1054040012F046FE0746002853D195F8C782B8F13A
:10541400030F0DD195F8C832DB0727D50A230146BF
:10542400204685F87C3102B0BDE8F04102F0B4BEFC
:10543400B8F10A0F1AD11023DB224FF4D57120469C
:1054440085F8DD3206F05CFC414606F095FB082247
:1054540039460646FFF771FD20463772777285F8A4
:105464007C8102B0BDE8F04104F0BCB896F8C812E3
:1054740011F001010AD096F8DD3213F0020381D055
:10548400002300931A4621461E4874E796F8EB223F
:1054940012F0020308D0102386F8DD32032386F8C5
:1054A400C73200910B466EE700931A462146164810
:1054B40061E74FF486724FF4D571204606F020FC64
:1054C40002B0BDE8F04106F0F9B91F2B03D85A0029
:1054D40085F8DD22E5E7202385F8DD3200283FF456
:1054E4004CAF40F22F124FF4D571E7E7902F002014
:1054F4006558000045530000395E0000614F01000B
:10550400415F0000095600001155000037B53A4CC0
:1055140094F8E53203F00E010229054638D1D4F897
:10552400CC22AAB394F8452212F0010230D162F3DE
:10553400430384F8E532012384F8C7320FF028FED0
:1055440010B394F8B536012B1ED1D4F8D422DAB9AD
:1055540094F87A2103FA02F2C4F8D42294F8E522EA
:1055640063F3430284F8E522D4F8D4321BB9D4F8A7
:10557400CC32C4F8D4320023204800931A4629467A
:1055840009F0D4FD03B030BD0023C4F8D432EBE7F6
:1055940094F84532DB0719D479B9D4F8D032ABB1D9
:1055A40094F8E532032262F3430384F8E5320123DD
:1055B40084F8C732D4F8D032DBE7022906D1D4F814
:1055C400D0321BB1D4F8CC32002BE9D0032384F8B9
:1055D400C73294F8E5320A48012262F3430384F89F
:1055E400E53294F8DD32934084F8DD3200230093F1
:1055F4001A462946C4E700BF902F0020FD52000040
:105604004553000038B540F28A224FF4D57105465F
:1056140006F076FB042106F0AFFA002104460422CA
:10562400FFF78BFC6FF0030323704FF0FF336370BD
:10563400B423A3700123E37028460249BDE838402F
:1056440011F04CBC4D56000013B54FF427724FF4C3
:10565400D571044606F054FBB0F90420094B12B18D
:10566400092283F8C72293F8DD22520083F8DD2251
:1056740034B1002300931A462146034809F056FD2D
:1056840002B010BD902F00204553000007B5144A06
:1056940092F8DD3213F0DF0320D182F8DD3292F884
:1056A400C83282F8C60213F0010309D100931A46E6
:1056B40019460C4809F03AFD012003B05DF804FBDB
:1056C400022807D1012382F8C7320A2382F8DD02B7
:1056D40082F8E732044806F0ECF8EDE70020ECE746
:1056E400902F0020C14101004553000008B50B4B29
:1056F40093F84522520706D413F078F9437843F01F
:105704000103437008BD93F8B93B9B07F4D413F02D
:105714006DF9437823F00103F3E700BF902F0020D5
:1057240070B54A4C86B0FFF7E1FF94F8EB320221E2
:105734006FF3820304F5157084F8EB3212F01EFF48
:10574400002864D094F8EB3243F0040384F8EB327D
:1057540094F8E0303E493F48032B08BF02234FF042
:10576400080208BF84F8E030FFF72FFB002864D05C
:1057740094F88453C5F3800594F88032142B5ED8D2
:10578400EDB26DB1082234493448FFF71EFB94F89A
:10579400E532B0FA80F0400960F3000384F8E532A2
:1057A40094F8EB3265F3410384F8EB322DB113F036
:1057B4001DF9437823F00103437094F8E53224493A
:1057C400244894F8E06043F08003082284F8E5322A
:1057D400FFF7FBFA94F8EB320295C3F380030593C9
:1057E40094F8843301960030C3F3800318BF01207A
:1057F40004931423039000934FF4D5724FF4D073A1
:1058040001214FF0FF300AF037F806B070BD0822CE
:1058140004F5B87104F51570FFF7D7FA002891D094
:1058240094F8E532DB078DD408220B4904F5157092
:10583400FFF7CBFA002885D08AE705469CE7002DC0
:105844009ED094F8EB52C5F3800599E7902F002081
:10585400ED83020068300020E5830200E43100207B
:1058640037B50546FFF75CFF4C4B93F8EB2212F07B
:10587400020F1C4630D093F8C822D20713D593F8F0
:10588400C622042A0FD10B2283F8E722102283F8C0
:10589400DD22002D6BD0002300931A462946404890
:1058A40009F044FC63E094F8C632012B0DD04FF4A8
:1058B400E9724FF4D571284606F022FA0123D4F890
:1058C400482238490EF0D6FD0025062384F8E73235
:1058D400012384F8DD32DCE70822334903F1D800E0
:1058E400FFF773FA10BB94F8843358071ED494F866
:1058F400EB32590705D494F8C632042B39D10B2363
:10590400E4E7082204F5B87104F51570FFF75DFAB1
:105914000028F0D094F8E532DA07ECD408222349C1
:1059240004F51570FFF751FA0028E4D008221E4947
:105934001C48FFF74AFAF0B194F88032142B03D9CB
:1059440094F8EB325B0716D54FF4FF724FF4D57120
:10595400284606F0D5F90023D4F8482211490EF060
:1059640089FD062384F8E732012384F8DD3203B08D
:1059740030BD0523AAE7002400944FF402734FF4CA
:10598400D57201214FF0FF3009F076FF21462846F9
:1059940003B0BDE8304002F0FFBB00BF902F0020F1
:1059A4004553000068300020ED830200E5830200C7
:1059B40038B502211B481C4C12F0E0FDB0B10125A2
:1059C40008221A491A48FFF700FA18B194F8840318
:1059D400C0F3800094F88032142B1ED894F8EB3274
:1059E400C0B260F3410384F8EB3238BD04F5B871FA
:1059F400082201F1E400FFF7E8F90028DFD094F869
:105A0400E532DB07DBD408220A4904F51570FFF7F9
:105A1400DCF9B0FA80F56D09D2E7002818BF2846F2
:105A2400DCE700BFE4310020902F0020ED8302006A
:105A340068300020E583020007B5164B93F8DD12A9
:105A440020291A461AD0082918D093F8C7120A290F
:105A540005D1114803B05DF804EB05F02ABF032912
:105A64000CD1012283F8C722002300931A46194659
:105A74000A4809F05BFB03B05DF804FB202382F8BD
:105A8400DD32032382F8C73203B05DF804EB0EF075
:105A940025BC00BF902F002045530000C1410100E8
:105AA40070B5C22240F60901104C054606F028F9EB
:105AB40012F09CFF94F87A3180F85430D8220223F3
:105AC40040F60901284684F8E03006F019F994F804
:105AD400843394F87A21012101FA02F2C3F380039A
