:1000000000000420B5020000DD020000DF02000055
:10001000E1020000E3020000E50200000000000031
:10002000000000000000000000000000E7020000E7
:10003000E902000000000000EB020000ED020000F9
:1000400085300000753F02004D350000EF020000D2
:10005000EF020000EF020000A9330000EF020000F1
:10006000EF020000EF020000EF020000EF020000CC
:10007000EF0200005D360000EF020000EF0200001A
:10008000EF020000651A0000EF020000EF0200001E
:10009000011B0000EF020000EF020000EF02000071
:1000A000EF020000EF02000065380000EF020000E0
:1000B000EF020000EF02000000000000000000005E
:1000C000EF020000EF020000EF020000EF0200006C
:1000D00069610200EF020000EF020000EF02000081
:1000E000EF020000EF020000EF020000000000003D
:1000F00000000000EF02000000000000EF0200001E
:1001000000000000000000000000000000000000EF
:1001100000000000000000000000000000000000DF
:1001200000000000000000000000000000000000CF
:1001300000000000000000000000000000000000BF
:1001400000000000000000000000000000000000AF
:10015000000000000000000000000000000000009F
:10016000000000000000000000000000000000008F
:10017000000000000000000000000000000000007F
:10018000000000000000000000000000000000006F
:10019000000000000000000000000000000000005F
:1001A000000000000000000000000000000000004F
:1001B000000000000000000000000000000000003F
:1001C000000000000000000000000000000000002F
:1001D000000000000000000000000000000000001F
:1001E000000000000000000000000000000000000F
:1001F00000000000000000000000000000000000FF
:1002000010B5054C237833B9044B13B10448AFF350
:1002100000800123237010BD700400200000000046
:10022000D8A2020008B5034B1BB103490348AFF342
:10023000008008BD0000000074040020D8A2020065
:10024000154B002B08BF134B9D46A3F5803A0021A8
:100250008B460F461348144A121A26F0F4FA0F4B35
:10026000002B00D098470E4B002B00D09847002061
:10027000002104000D000D48002802D00C48AFF307
:10028000008026F069FA2000290004F0C1FA26F067
:100290003DFA00BF0000080000000420000000003C
:1002A00000000000700400205C48002000000000F6
:1002B000000000000649074A074B9B1A03DD043B78
:1002C000C858D050FBDC04F0B1FBFFF7B9FF0000C9
:1002D0009CA302000000002070040020FEE7FEE75F
:1002E000FEE7FEE7FEE7FEE7FEE7FEE7FEE7FEE7E6
:1002F000F0B595B01C46164608460D4602F0FAFACF
:100300001A9B0D93CDE9086400242346082205A911
:1003100028460A948DF82C400C9402F009FB079BA8
:100320000293BDF81830ADF80C30BDF81A30ADF8B6
:100330000E309DF814308DF8114003F00302012AAD
:100340001DD1BDF81440059EC3F3C203C4F383144A
:100350008DF81030A20008230EA9284602F0E8FA12
:10036000C6F3952608AB0093224602AB0EA9304691
:1003700000F0FCFC284602F0C1FA15B0F0BD022ADC
:10038000F8D1BDF81640C3F3C203A4098DF81030AC
:100390000827082C264628BF08263B4632460EA9C9
:1003A000284602F0C5FAA41B08AB02AA31460EA8E3
:1003B000374400F03FFD002CEBD1DBE7014B01227D
:1003C0001A707047CD0400207047000070B50F4DC3
:1003D00006460FCD88B06C460FC495E80F00002E7E
:1003E00084E80F004FF006030093094A09484FF0D4
:1003F000805308BF00226946069302F021FD08B130
:1004000001F0BEFA044B1E7008B070BD8C7C020077
:10041000BD030000000000208C04002007B5044B41
:100420000093044A4023FFF763FF03B05DF804FB29
:10043000390400008D04002038B50D4B0D4D00200F
:1004400018700D4804782D5DD2B21C4665B1043099
:1004500003F092FE08B101F093FA084B1A7812B13A
:100460002378002BFBD038BD0C3003F055FCF1E7AE
:10047000CD04002044300020000000208C04002027
:1004800008B50848084A0378D35C3BB1043003F050
:1004900019FE0020BDE80840FFF798BF0C3003F0BC
:1004A000E1FBF6E700000020443000200120FFF7C8
:1004B0008DBF000008B5FFF7F9FF0421034800F0E5
:1004C000B3FB034B01225A7108BD00BF6CA30200AD
:1004D00014000020037813F0040216D003F0030385
:1004E000012B03D0022B09D0012070470A68008835
:1004F0000232C0F3831002440A60F5E70B684288B9
:10050000023303EB92130B60EEE7104670470000D6
:100510002DE9F04F484C87B00F460546861C002059
:10052000019201F0E9FC23683B60D4E90123134404
:10053000226801339B1A04F21C4704F5836A04F213
:100540001448B34219D3019A0023002A6CD0012227
:1005500062F3010343F0040365F389132168A26881
:100560000A4003320E44002044F82230266001F095
:10057000C5FC012007B0BDE8F08F0121384601F02D
:10058000F5FC504601F00BFD404601F008FD0DF171
:1005900018096068D4F808B049F8100D00EA0B009B
:1005A000033004EB80004946FFF794FF029BB0B98B
:1005B0000BEA030204EB8202D16803919A1C013317
:1005C00003EA0B0B04EB8B0C01F00303012B0292EB
:1005D000DCF80CB020D0022B04D083460BE00BEAF1
:1005E0000300DDE7BDF80E309B0903334FEA1B4BD8
:1005F00002EB93030293404601F0D4FC08B1029B46
:1006000063605946384601F0B1FCD4E90123134434
:10061000226801339B1A94E7BDF80C30C3F38313AF
:100620004FEA1B4B1344E5E7022262F3010343F058
:10063000040365F39F5391E7A005002030B50A4BF2
:100640000A4A0B49D21AD20800239A4201D1052046
:1006500006E031F823500468A54202D1036000206F
:1006600030BD0133F1E700BFF4A202006CA3020029
:10067000E00300202DE9F84F224B2348FF229A6027
:100680000022C3F81824C3E90022C3F8142483F815
:10069000202402F0E8F8804688B91C481C4E1D4D05
:1006A000DFF874A002F053FAAD1BED084446AC42EB
:1006B00008D10023184919481A469C421BD14046CC
:1006C000BDE8F88F4FF000094F4606EBC40BBC4263
:1006D0000AD0142256F83710DBF8000026F0E2FBAF
:1006E0000028C8BF09F101090137BD42EFD12AF83E
:1006F00024900134DBE701EB830540F823206A8076
:100700000133DAE7A00500207CA30200CC7C0200C4
:10071000F4A202006CA30200E00300201C040020ED
:1007200007B5019031B9019A064B53F8320003B076
:100730005DF804FB01A8FFF781FF0028F3D000203B
:10074000F5E700BFF4A20200094B013903EBC0003A
:10075000032909D8DFE801F00A02040604207047E3
:100760000079704740797047002070470220704739
:10077000F4A2020030B5124C00EB400054F82150B6
:100780008240072303FA00F06A4002400D4B6A40A2
:10079000C2F3821044F8212003EB8101C2F3C203AB
:1007A000834238BF0346C2F34220834202F007026D
:1007B00038BF03469A4238BF1A464A8030BD00BF50
:1007C0001C040020E0030020034BD3E90030C31ACF
:1007D00058425841704700BFA00500202DE9F04F56
:1007E00085B0FFF7F1FF0646002840F018818D4DD7
:1007F000C5F81804BFF34F8F6868AC6804AF47F8BA
:10080000100D2040033005EB80003946FFF762FEF3
:10081000009B18B1D5F81824002A66D004EA030218
:10082000991C013305EB8202234005EB8303D26858
:10083000DB68029302F00303022B0192009169D15D
:10084000BDF8063078489DF804604FEA931ABAF173
:10085000500FD14628BF4FF0500969F38F1309F1AB
:100860000801ADF8063002F016F8C6F3C20680465D
:10087000002800F0BB8002F03DF801A90023082207
:10088000404602F04AF8009924EA01070137BF0008
:10089000B94538D95FFA89F997B3FFB2A9EB0709CF
:1008A000214003315FFA89FBB946604F05EB8101B6
:1008B00008234A46404602F030F837B109F10803F0
:1008C0005A463946404602F028F8009B0AF1030ACE
:1008D00003EB9A030093D5F81834002B50D1D5F8C8
:1008E0001044DFF85C9107276FE02A689A4204D829
:1008F0006A60304605B0BDE8F08F04EA030081E786
:100900004A49BB46D4E72140033108234A4605EB58
:100910008101D7E7012B69D1BDF804604248C6F3D5
:100920008311062928BF062161F389160231890047
:10093000ADF8046001F0AFFFC6F3C20680460028A0
:1009400054D001F0D7FF0023082201A9404601F04E
:10095000E4FF0027BDF80420C2F38312BB1C9742BA
:100960004FEA8303B7D200994A1C21400331009219
:1009700005EB81010422404601F0CFFF0137E9E792
:10098000404601F0BBFFFFF71FFF80F00100C6B239
:10099000AFE7E3685A79B2B11B79BDF8081003EBF1
:1009A000430259F8211007FA02F3052E03EA010366
:1009B00023FA02F308BF0326B34204D32368414657
:1009C0001B6820469847E3681C68002CE1D140462C
:1009D00001F094FF204601F08FFAD5F818340BB9D6
:1009E000009B6B60002001F089FACCE7D5F8104439
:1009F00074B90F4B5B88012BC5D90E4B0E480F49BC
:100A0000C01AC008000440F0020000F073F8BAE712
:100A1000236820469B689847E3681C68E8E700263F
:100A200067E700BFA00500207CA30200AC05002002
:100A3000FC030020F4A202002CA30200D87C0200D8
:100A40001C0400202DE9F74F284C80460F469246A3
:100A500001A9012218469B46D4F80890FFF758FDDB
:100A600088B3019D0026A91C5E4506EB010234D126
:100A700000211F4801F044FA80F310006A1C02EACA
:100A8000090204EB8202000405EA0903033340EA89
:100A90001840D06014F8232068F3C50204F823201E
:100AA00034F8232066F3891224F8232054F82320F5
:100AB000012167F39F2244F8232061F301026FF3C1
:100AC000820204F8232094F820341BB1FFF786FE3D
:100AD0000028FBD103B0BDE8F08F09EA020204EB65
:100AE00082025AF82630D3600136BDE7A005002007
:100AF000BC09002000231A46FFF7A4BF13B502ACBF
:100B0000012344F8042D2246FFF79CFF02B010BDDC
:100B100007B5CDE9002302236A46FFF793FF03B030
:100B20005DF804FB1FB5CDE90123069B039301AAE1
:100B30000323FFF787FF05B05DF804FB1FB5CDE980
:100B40000023069B0293079B03936A460423FFF747
:100B500079FF05B05DF804FB2DE9F3478046304C82
:100B6000D01C8A46174601A900228008A568FFF715
:100B7000CFFC002840D0DDF80490A66809F10200FF
:100B8000019001362840361AB6000330B74204EB14
:100B900080003BD83A46514625F031FE00212148DD
:100BA00001F0AEF980F3100009F101032B4004EBD2
:100BB00083034FEA184242EA0040D86005EA09037D
:100BC000033304EB830214F8231068F3C50104F81F
:100BD000231034F823106FF38F1124F82310518859
:100BE00067F38F11518014F82320022161F3010271
:100BF0006FF3820204F8232094F820341BB1FFF72E
:100C0000EDFD0028FBD102B0BDE8F0873246514629
:100C100025F0F5FDBA1B0AEB060104F10C00BBE759
:100C2000A0050020BC0900202DE9F8431F4B884691
:100C3000D3F81014054600240A469AB9E9680C71E5
:100C4000D3F81014A1B9C3F81054EB681A60184F08
:100C5000184EF61BF6084FF00009B14511D1204699
:100C6000BDE8F883D2681079A04218D01268E4E792
:100C7000C968EA6809681160D3F81034DB681D6040
:100C8000E5E707EBC9034946DA79EB68424528BF37
:100C900042461879FFF76EFD09F10109DDE70134DD
:100CA0000A2CC9D14FF0FF34D9E700BFA0050020BE
:100CB000F4A202006CA3020010B5037A052B0C46C7
:100CC0000FD0437A23B1084A0849204601F0C9F9F8
:100CD0000749204601F0C5F92046BDE8104001F063
:100CE000B5B9002AF8D0F3E7337D0200387D020061
:100CF000587D020073B5C38804460D4633B1144ACB
:100D000000921449144A284601F0ABF9217A0529CA
:100D10001CD0637A4BB1A088FFF716FD0F4B10492A
:100D200053F82020284601F09CF9227A0D4BA08828
:100D300053F822600021FFF7F3FC0B4903463246CB
:100D4000284602B0BDE8704001F08BB902B070BD1A
:100D5000337D0200437D02003B7D0200007D0200E6
:100D6000387D0200687D02005B7D02002DE9F043C2
:100D700085B01F460C9D002306460C46904695F80C
:100D80000C902B7329463846FFF7B4FFB8F1060FD5
:100D900009D8DFE808F00412181F28334000314654
:100DA000284601F05EF9002229463846FFF784FF05
:100DB00085F80C9005B0BDE8F083226831462846DE
:100DC00001F04FF9EFE7D4E900233146284601F05E
:100DD00048F9E8E7A36800933146D4E900232846A0
:100DE00001F03FF9DFE7E3680193A3680093314620
:100DF000D4E90023284601F034F9D4E723690293AB
:100E0000E3680193A36800933146D4E900232846A0
:100E100001F027F9C7E76369039323690293E36845
:100E20000193A36800933146D4E90023284601F0DA
:100E300018F9B8E708292DE9F84F80460E461746FD
:100E40001C4635D8002593F80C901D7319461046A2
:100E5000FFF750FFDFF88CA0DFF88CB0AE4229D945
:100E600018F805205946204601F0FBF80135082DF9
:100E7000F4D11A49DFF874B0204601F0F2F84FF0CF
:100E8000000A564524D918F80A507E2D17D92E226B
:100E90005946204601F0E5F80AF1010ABAF1080FB7
:100EA000EFD1012221463846FFF706FF84F80C9067
:100EB000BDE8F88F5146204601F0D3F8D6E725F07B
:100EC0006FFC2844427812F0970FE0D02A46DFE703
:100ED0000349204601F0C5F8DEE700BF2E7D020081
:100EE0002C7D02002A7D0200247D0200307D02005C
:100EF000074B1B5C1F2B8ABF064A4FF0A04203F032
:100F00001F03D2F80405D840C04300F00100704729
:100F1000CD7D020000030050074B1B5C1F2B86BFDA
:100F200003F01F0305494FF0A041012202FA03F329
:100F3000C1F80C35704700BFCD7D020000030050A2
:100F4000074B1B5C1F2B86BF03F01F0305494FF0A7
:100F5000A041012202FA03F3C1F80835704700BF2F
:100F6000CD7D02000003005008B50020FFF7E8FF28
:100F70000120FFF7E5FF0220FFF7E2FF0320BDE8B5
:100F80000840FFF7DDBF08B50020FFF7C5FF0120CF
:100F9000FFF7C2FF0220FFF7BFFF0320BDE80840B4
:100FA000FFF7BABF0A4B185C1F288ABF094B4FF0E6
:100FB000A04300F01F00D3F804250121814021EA5D
:100FC00002000A40C3F80805C3F80C25704700BFAB
:100FD000CD7D0200000300500B2809D00C2809D059
:100FE000182809D019280CBF03204FF0FF30704794
:100FF000002070470120704702207047C20710B5DB
:1010000004460CD54FF0A0430322C3F83427C3F89D
:101010003827C3F83C27C3F84027FFF7A5FFA307ED
:101020000AD54FF0A0430C22C3F82C27C3F8302771
:10103000C3F86027C3F8642710BD00000D4930B520
:10104000A1F50E720225914201D800200EE08B1A04
:10105000DB1093FBF5F302EBC30452F83330834209
:1010600005DC02DA04F10802EDE7606830BD2146D4
:10107000E9E700BF6885020008B5FFF7DFFF024B14
:10108000002808BF184608BDD17D020013B502AC88
:10109000002304F8053D01939DF80330032B08D984
:1010A00004210DEB010001F089FE30B9019802B076
:1010B00010BD204601F078FEEEE70020F7E708B506
:1010C00000F0B0FA00F0ACF8002001F03DFE10B1E5
:1010D00000F0FCF8FCE7FFF7D9FF25F083FE01F0F4
:1010E000EDFE10B900F0F2F8FCE7BDE808400EF0A4
:1010F0003BBB01F029BC08B500F0E8F8FCE762B69C
:10110000704772B67047FFF7C1BF08B50EF03CFBE1
:101110004FF47053584308BD38B50D4614465AB1C4
:1011200051B148B101F00EFF2946204601F0E0FE22
:1011300010B900F0CBF8FCE738BDEFF305800030C4
:1011400018BF012070470000F7B54FF0805300250D
:101150001C6E596E04F0FF0745EA010206A5D5E9A9
:10116000004502A9224347EA050361E90223082258
:1011700025F045FB03B0F0BD000000000036CEF4C2
:10118000004870475C0A0020704708B506F0C4FCB0
:10119000437B1BB1BDE8084001F0ECBB08BD00007B
:1011A00008B521F063FB022802D0002004F0E4FD22
:1011B00001F0EAFD0748084A0378D35C33B10430F4
:1011C00002F080FFBDE8084023F086BE0C3002F03C
:1011D00049FDF7E7000000204430002008B500205A
:1011E00001F0B2FD10B100F071F8FCE7FFF75EF915
:1011F000BDE8084023F05EBE10B5044670B1FFF7AD
:10120000CFFF204600F04EFA01F0B4FB00F068FA80
:101210000446FFF7E3FF002C08BF0124204610BD61
:1012200008B50AF067FE48B9054B1B7813B9054BA2
:101230001B781BB1BDE808400AF062BE08BD00BFC4
:10124000C1010020C40100202DE9F84307460E46E5
:101250000AF050FE58B1184C184BDFF86890DFF8D0
:101260006880E41AE408240444F003040EB9BDE8DD
:10127000F883D9F80000C0F10805B542A8BF35468B
:101280002A463946404425F0BAFAD9F800202A44C3
:10129000082AC9F800202F44A6EB0506E6D1084B22
:1012A0005B88022B03D941462046FFF755FC0023FB
:1012B000C9F80030DAE700BF64A30200F4A202001C
:1012C00018040020A80A0020A00A002010B50C4C29
:1012D000226882B10B4B5B88022B0AD90A480B4B60
:1012E0000B49C01AC008000492B240F00300FFF797
:1012F00033FC00232360BDE81040FFF76FBA00BF46
:10130000A80A00201804002064A30200F4A202002E
:10131000A00A00204FF0102358694FF08053411C61
:101320001A695B6908BF03FB02F070470378022B60
:1013300001D80AF0F3BD704710B5FFF7EBFF0A4C78
:101340002061FFF7E7FF094B0949A0F54040E06045
:1013500000222046C3F8082101F046F818B1BDE884
:101360001040FFF7C8BE10BD58040020AC0A002092
:10137000708702004FF4804070470220704708B524
:1013800013460A4631B143B10146184625F037FAF3
:10139000002008BD6FF00A00FBE76FF00B00F8E7D4
:1013A0000128F8B507460C4616461D4612D80B44D0
:1013B000B3F5804F11D29AB1ADB1FFF7ABFFA4F5F1
:1013C000404101EB873101442A46304625F017FAA7
:1013D0000020F8BD6FF03800FBE76FF01600F8E76B
:1013E0006FF00B00F5E76FF00C00F2E70128F7B59E
:1013F00007460C4616461D4626D80B44B3F5804FCB
:1014000025D23AB3AB0828D0FFF784FFA4F54044B7
:1014100004EB873404440AF089FD07460028FAD11A
:101420000AF074FD214600972B4632460C4801F025
:1014300017F804460AF07AFD0028FBD1201C18BFDB
:101440000120404203B0F0BD6FF03800FAE76FF0C2
:101450001600F7E76FF00B00F4E76FF00C00F1E710
:101460005804002001282DE9F041064626D8FFF750
:1014700051FF00EB8630A0F54044DFF84C8004F5C6
:1014800080470AF053FD05460028FAD10AF03EFDD8
:101490002B4601222146404601F0A2F888B90AF005
:1014A00045FD05460028FAD104F58054BC42E8D138
:1014B00030460AF043FD2846BDE8F0816FF0380061
:1014C000FAE74FF0FF30F7E75804002010B5084C5A
:1014D000D4F8083153B19BB22246D4F8041194F8E1
:1014E0000001FFF783FF0023C4F8083110BD00BFDF
:1014F000AC0A00202DE9F8431C4C1E46D4F80831F4
:1015000081460F4690466BB194F80021824207D184
:10151000D4F804211A44914202D1B3F5807F01D15D
:10152000FFF7D4FFD4F8080118B984F80091C4F883
:101530000471C0F58075B54234BFADB235464DB1CA
:101540002A464146204425F05AF9D4F808312B4464
:10155000C4F80831761BB6B216B93046BDE8F88338
:10156000FFF7B4FF2F44A844DCE700BFAC0A00201B
:1015700007B50C4B18680090FFF7CCFE0422A0F5CD
:1015800080410DEB020025F03AF9042269460DEB8B
:10159000020025F025F9B0FA80F0400903B05DF8AB
:1015A00004FB00BF6E85020070B506460D4614466A
:1015B000FFF7B0FEA4F57F543C3C32462946204458
:1015C000BDE87040FFF7DBBE00487047748502003D
:1015D0000422032102708170002206214270C17032
:1015E000426070477047B0F5A27F01D10AF0A8BCF5
:1015F0007047000010B5074C2378012B09D1FFF785
:10160000E3FF02F0BDF8FFF7DFFF02F0C5F80023AB
:10161000237010BDD00B0020014B1878704700BF1D
:10162000D00B00201FB502A8FFF7D2FFFFF7CCFFB9
:10163000104A02A902F028F808B1FFF75CFDFFF795
:10164000C3FF0368D3F81045FFF7BEFFE2B24FF4C3
:101650007031012421FA02F202232146009402F0A3
:10166000EAF8FFF7B1FF02F07DF8034B1C7004B0FD
:1016700010BD00BFE7150000D00B002008B5084BD7
:101680001B780BB9FFF7CEFFFFF79EFF02F0ACF817
:1016900028B9FFF799FFBDE8084002F063B808BD1C
:1016A000D00B002010B5044624F0D2FE094B186080
:1016B00074B1094B094A18604FF47A7060430021F5
:1016C00058609A60D9601846BDE8104024F0E6BE24
:1016D00010BD00BFB80B0020BC0B0020E5150000BA
:1016E00008B524F0B5FE054B1B68C3F579730333C9
:1016F00018444FF47A73B0FBF3F008BDB80B002028
:101700002DE9F04F3B4F89B000263B4B1B78F5B2DB
:10171000AB4202D809B0BDE8F08F384B196811F818
:1017200035000124A0F12002C0F1200304FA02F9DF
:1017300024FA03F349EA0309D7E9002304FA00F87D
:10174000CDE9042302EA080203EA0903134301EB8B
:10175000C50B4CD0DDE9042322EA080223EA090381
:10176000C7E90023079101F00FFE0799844611F89D
:101770003500A0F12002C0F1200324FA03F304FA9B
:1017800002F21A4304FA00F300931D4B0192DDE9C3
:101790000045D3E9002314401D4022462B465FFA42
:1017A0008CF40025CDE90445049CA0F12005AC4053
:1017B0000394049CC0F1200124FA01F1039C0C4322
:1017C0000499039481400291DDE90245AB4208BFD0
:1017D000A2420CD19BF801104B1E59425941A1EB7A
:1017E0000C02DBF804305142514103B198470136F5
:1017F0008BE700BF000C0020D10B0020080C00205C
:10180000F80B00202DE9F84F0646244800F052FB63
:10181000002841D10123A6F12001C6F1200203FADC
:1018200001FB23FA02F203FA06FA1D4BD3E9000189
:101830004BEA020B00EA0A0801EA0B0958EA09021E
:101840001F4623D1304601F09FFD164BB8B1D3E9B6
:10185000000140EA0A0441EA0B05C3E90045D7E963
:1018600000234AEA02044BEA0305C7E900450E4B90
:101870000A4819680022BDE8F84F00F0D9BAD3E948
:10188000000120EA0A0421EA0B05E6E720EA0A043F
:1018900021EA0B05C3E90045BDE8F88FD80B00200D
:1018A000000C0020F80B0020D40B0020042A2DE9A6
:1018B000F34105460C4616463AD901F08BFCD8B1E7
:1018C0001C4B1D491D601D4BDFF884801C701C4B98
:1018D00000221E600023C1E900231A49C1E9002348
:1018E000013CE4B200260327FF2C0CD1164A17480E
:1018F000002100F08BFA03E001F036FC0028DFD075
:1019000002B0BDE8F08123B205EBC30201A99278D1
:101910008DF8052015F833008DF8066042468DF8E5
:10192000047001F061FC013CE4B20028DCD0E7E780
:101930000720E5E7080C0020F80B0020D10B002061
:10194000D40B0020000C0020011700007C85020051
:101950000518000070B5084D084E00242B789C42F5
:1019600001D3002070BD3368012113F8340001F069
:10197000C1FC0134F2E700BFD10B0020080C0020AD
:101980001FB50021039001AA44F20100CDE9011125
:1019900004F010FC05B05DF804FB0000094A537820
:1019A00091780133DBB2994208BF00231178994244
:1019B0001FBF03705078182303FB002014BF0430AE
:1019C000002070470C0C002037B5044600200D465F
:1019D00000F092FA0DF10700FFF7E0FF90B10570FB
:1019E000094B9DF8072044605A700024002000F045
:1019F00085FA24B9054B4FF48012C3F80021204624
:101A000003B030BD0424F1E70C0C002000E100E03D
:101A1000024B4FF43C6043F00103184780850200FD
:101A200038B50C4B0C4C4FF40032C3F88020012524
:101A30004FF48033C4F84833C4F808336560FFF7C7
:101A4000E7FF064BA56000241C60FFF7E1FF044B95
:101A50001C7038BD00E100E000100140280D00209E
:101A6000190D0020F8B51F491F4B0025C1F8405142
:101A7000C1F84451C1F84851C1F84C51C1F8005166
:101A8000C1F804511B684BB3D1F8044517490968E4
:101A9000641A24F07F442F461A68A24209D8A41A77
:101AA00015441A7CDE691AB11F74D3E905209047EA
:101AB000AEB90F4B0F4A197813788B4205D1013319
:101AC000DBB2022B08BF0023137012780A4B43F8D5
:101AD00022500A4B4FF48012C3F80021F8BD334660
:101AE000DAE700BF001001402C0D0020280D002077
:101AF000240D0020250D00201C0D002000E100E039
:101B00002DE9F74F9E4A9F49137809789E4D9942D7
:101B10003CD00133DBB2022B08BF002313709B497A
:101B200012789B4B0F6853F822003B1823F07F4339
:101B300000220B602B6816461446944613B942B136
:101B40002B6006E0196881420ED902B12B60091A98
:101B500019604FF001082B68DFF83CA200930027C2
:101B6000BEB9DFF83CB260E0401A0C44D968C3F853
:101B700000C0D3F81CE031B13A1922F07F42C3E92A
:101B80000121DE611E4601227346D7E70026B046DA
:101B9000E1E73446F6697D4A63681268DFF804C2FB
:101BA000A068991A21F07F41614500F2A5800144A7
:101BB0002160012222742A680023C4E90133E36111
:101BC000002A40F0A2802C60CAE75A1C9BF8021041
:101BD000D2B291428BF8002004BF00228BF8002083
:101BE000182202FB03B32A6819799C68022974D071
:101BF00003297ED0012918D1217CB1B9DA6862604D
:101C00001A69A2605A69E2609B69A361614B1B7803
:101C1000002BC0D06160BEE79C4200F093809946E3
:101C2000DB69002BF8D1002323749BF800309BF86C
:101C300001209A42C9D12B682FB9009A934202D150
:101C4000B8F1000F43D0002B79D0D3F800A0524D4B
:101C50004E4BD5F804751C68DFF84C813E1B98F894
:101C6000003026F07F4603369BB94FF48033C5F829
:101C70004433C5F80433494B4FF400324FF00109A7
:101C8000C3F880211A60C5F80090FFF7C1FE88F8FC
:101C90000090B2452CBF5444A41924F07F44C5F8E9
:101CA0004045D5F80435DB1B23F07F43E41B0333A9
:101CB00024F07F44A3420AD9D5F80435C5F840354D
:101CC000FFF7A6FE354B4FF40032C3F80021314B2D
:101CD00000221A7003B0BDE8F08F13469146A0E7CA
:101CE0001174D2690123002AFAD1002B9DD02A60F9
:101CF0009BE700231946F6E7D31A23F07F4383427C
:101D000034BFC31A0023236053E721681368994244
:101D100013D8591A1160E26155E7091AD8691A46B1
:101D200038B1034618688842F7D3401A186018463D
:101D300013462160E061DC6112E71346F2E7FFF72A
:101D40006FFEC4E74C450DD1D3692B6053B90F48E2
:101D500001920121CAF8081003600E4B1970FFF7B9
:101D600057FE019AE1692368C9F81C1011B108688F
:101D700003440B602B689A4218BF012753E700BF4A
:101D8000240D0020250D00202C0D0020280D002002
:101D90001C0D0020180D00200010014000E100E0A3
:101DA0000C0C0020FEFF7F00190D002008B5FFF786
:101DB00037FE104B00200B2218809A700E4B1860D3
:101DC0000E4B18700E4B18700E4B4FF48012C02142
:101DD000C3F8802183F814131A6002F18042A2F53F
:101DE0006F22C2F8080583F81113074BD2F80425B7
:101DF0001A6008BD0C0C00202C0D0020240D0020C2
:101E0000250D002000E100E0280D0020074B9B7805
:101E10004BB132B128B10368187C20B959745A61AA
:101E20007047072070470820704700BF0C0C002047
:101E30002DE9F3411C4EB37804460D4617468BB38B
:101E400080B304292CD9436963B3437C0020012B60
:101E50000CBF88464FF0000800F04EF80DF1070067
:101E6000FFF79CFDD0B101230370104B4460D3F801
:101E70000435C0E90487C0E902359DF80730737066
:101E80000024002000F03AF824B9094B4FF48012E6
:101E9000C3F80021204602B0BDE8F0810424F0E739
:101EA0000724F7E70824F5E70C0C00200010014098
:101EB00000E100E0064A92783AB130B1426922B1BD
:101EC000002202740221FFF77FBD0820704700BF87
:101ED0000C0C002072B6024A13680133136070477D
:101EE000300D0020034A1368013B136003B962B64A
:101EF000704700BF300D0020FFF7ECBFFFF7F2BFC7
:101F000050E8002F0B4640E8003C9CF0000FF7D152
:101F10001046704750E8002F42EA010340E8003CB9
:101F20009CF0000FF6D11046704750E8003F43EA9E
:101F3000010240E8002C9CF0000FF6D110467047DB
:101F400050E8002F02EA010340E8003C9CF0000F3B
:101F5000F6D11046704750E8003F03EA010240E81E
:101F6000002C9CF0000FF6D11046704750E8003F5F
:101F700003EB010240E8002C9CF0000FF6D1104664
:101F8000704750E8003FA3EB010240E8002C9CF0B2
:101F9000000FF6D1104670470121FFF7BBBF0121AA
:101FA000FFF7C3BF0021FFF7CBBF0021FFF7D3BF6F
:101FB00010B590B1D0E9012301689B1ADBB20A6029
:101FC000013BDBB2FF2B026802D10020107110BD73
:101FD00011684C1C14600B70F2E70E20F7E738B55F
:101FE00004460020FFF788FF2268616813688B426F
:101FF00015D9591E116013F8015CA28AE36802FB2F
:1020000005352268A36811685B1A1179DBB2994221
:1020100000D213710020FFF771FF284638BD00255C
:10202000F8E738B5054600200C46FFF765FF2A683B
:102030001368591C1160E968641AA98AB4FBF1F4A9
:102040001C700020BDE83840FFF758BF10B582680B
:1020500004462AB143690168006998470023A360D8
:1020600010BD0EB403B5039929B102AA04AB42F81E
:10207000043D00F073F802B05DF804EB03B0704764
:102080000A2938B504460D4602D10D21FFF7F8FFA5
:10209000A3682268591CA160D554D4E901329A4240
:1020A00004D32046BDE83840FFF7D0BF38BD00005C
:1020B0002DE9F84F9946DDE90A43174682468846DE
:1020C0000A460126BA420FD24E4538BF4E4613F09B
:1020D000010B01D164B900240125B9F1010F1AD90E
:1020E00009F1FF397D43F8E7B2FBF7F20136E9E782
:1020F0009B070ED5B9F1000F0CBF30252025A64255
:10210000EAD2013C29465046FFF7BAFF002CF6D12F
:10211000E1E72025F3E7B8FBF5F39F42E2D9DFF8CA
:102120003890B8FBF5F3504619F8031005FB1388F7
:10213000FFF7A6FFB5FBF7F5002DF2D1BBF1000FBD
:1021400002D00CB1A64201D3BDE8F88F2021504641
:10215000013CFFF795FFF4E7868502002DE9F74F74
:10216000054690460E46002900F03A8116F8011BFC
:10217000002958D0252940F0D180002702E047F0FF
:1021800001071646324612F8013B2D2BF7D0302BB3
:1021900004D02B2B05D147F00407F2E747F00207E4
:1021A000EFE700242A2B06F101021BD1D8F80030FA
:1021B000191DC8F800101B6816461C4433782E2BD6
:1021C0001CD101364FF0000A314611F8012BA2F163
:1021D0003000092814D80A2303FB0A23A3F1300A8C
:1021E0000E46F1E712F8013CA3F130010929E5D8C8
:1021F0000A2101FB0434303C1646D3E74FF0000AB5
:10220000324612F8011B01F0FB0068281646F8D090
:10221000692916D054D8582970D00ED825297DD0D8
:102220003378002BA2D12B7B002B00F0D9802846DD
:1022300003B0BDE8F04FFFF709BF632968D06429F8
:10224000EED1D8F80020111DC8F80010D2F8009087
:1022500089EAE972A2EBE9724FF0010B092A61DC0D
:10226000D34538BFD3462CB1B9F1000F01DB790754
:1022700000D5013CBA0702D5BAF1000F04D0FB0724
:1022800002D4002C54D10024B9F1000F58DAC9F15E
:1022900000092D212846FFF7F3FE07F00302022A6A
:1022A00005D1BAF1000F02D1002C4DD10024CDE9A7
:1022B000004753460A2249462846FFF7F9FEAFE792
:1022C000732954D016D87029AAD1D8F800301A1D15
:1022D000C8F80020302128461C68FFF7D1FE78217D
:1022E0002846FFF7CDFE00220823CDE90032214623
:1022F0001022E1E775292FD0782991D1D8F8001064
:102300000A1DC8F80020CDE90047534610222CE0F2
:10231000D8F800301A1DC8F8002019782846FFF7B1
:10232000AFFE7DE70A230BF1010B92FBF3F295E779
:10233000A345A9D220212846013CFFF7A1FEA0E732
:102340007807AAD52B21A5E7A345B0D2302128468E
:10235000013CFFF795FEA7E7D8F80010CDE900474C
:102360000A1DC8F8002053460A220968A4E7D8F8D5
:1023700000301A1DC8F80020F907D3F8009012D5D4
:102380004F46A7EB090B17F8011B41B9A345BFF452
:1023900047AF20212846013CFFF772FEF6E72846AA
:1023A000FFF76EFEEDE7B9F1000F17D0484624F0B5
:1023B00071FD0746BC4200D954B909F1FF3919F83B
:1023C000011F00293FF42CAF2846FFF759FEF6E71E
:1023D00020212846013CFFF753FEEBE74F46E9E793
:1023E00003B0BDE8F08F000007B50B46A0B9154B50
:1023F0005B886BB1144B1548154AC01A0E23C008F0
:102400000093144B0004144940F00100FEF78AFBCE
:102410000E2003B05DF804FB6BB90A4B5B88002B00
:10242000F6D0094B09480D4AC01AC0080E23009384
:102430000004084BE7E703601B68114603B05DF832
:1024400004EB184708040020F4A2020044A3020091
:10245000438602009685020048860200BF8602007D
:102460002DE9F3419646B0B9504B5B88002B00F044
:1024700095804F4B4F48504AC01AC0080E244F4B0E
:10248000009400044E4940F00100FEF74BFB20464B
:1024900002B0BDE8F0816AB9444B5B88002B7DD067
:1024A000434B4448474AC01AC0080E240004009415
:1024B000424BE7E7D0F800C0BCF1000F0DD13B4B19
:1024C0005B88002B6CD03A4B3A483F4AC01AC00890
:1024D000082400040094394BD4E76BB9334B5B8874
:1024E000002B5FD0324B3348384AC01AC008092449
:1024F00000040094314BC5E74768D7F80480B3FB6C
:10250000F8F708FB17376FB1284B5B88002B49D0D1
:10251000274B28482E4AC01AC008092400040094FA
:10252000264BAFE78F070DD0204B5B88002B3BD0AD
:102530001F4B2048274AC01AC008102400040094EA
:102540001E4B9FE712F0030F0CD0184B5B885BB358
:10255000174B1848204AC01AC008102400040094E1
:10256000164B8FE7C768B9420BD34C1E05691C4454
:10257000AC4206D8DCF80C40A44602B0BDE8F041FD
:1025800060470A4B5B887BB1094B0A48134AC01A63
:10259000C008102400040094084B73E70E2476E76B
:1025A000082474E7092472E7102470E70804002067
:1025B000F4A2020044A3020043860200A8850200A0
:1025C00048860200C5860200B986020078860200AD
:1025D000CB860200F58602000D87020030870200DC
:1025E000F7B5A0B9374B5B88002B63D0364B374823
:1025F000374AC01AC0080E24364B009400043649EE
:1026000040F00100FEF78EFA204603B0F0BDD0F88E
:1026100000C0BCF1000F0DD12A4B5B88002B4BD0C2
:10262000294B2A482D4AC01AC008082400040094E7
:10263000284BE4E76AB9234B5B88002B3ED0224B42
:102640002248274AC01AC008092400040094214BDC
:10265000D5E74768D7F800E00EF1FF370F420CD0FE
:10266000184B5B8863B3184B18481E4AC01AC00841
:10267000102400040094174BC1E7C768B9420CD37B
:102680004C1E05690EFB0244AC4206D8DCF8104033
:10269000A44603B0BDE8F04060470A4B5B887BB1BD
:1026A000094B0A48104AC01AC008102400040094BC
:1026B000084BA4E70E24A7E70824A5E70924A3E70D
:1026C0001024A1E708040020F4A2020044A30200A1
:1026D00043860200BB85020048860200B9860200DC
:1026E00078860200CE850200F4850200014B43602B
:1026F000002070476487020008467047002070473A
:10270000024B1868003018BF01207047340D0020BC
:1027100008B50248FFF749FC002008BD340D002031
:1027200008B510461A4624F06AF8002008BD0000DB
:102730002DE9F041804686B013480E4615461F46E7
:10274000FFF72AFC044630B1112018E006EB0430F4
:1027500000F008FC0134A542F8D10B48FFF725FC36
:10276000D8F8083000246BB1022268468DF80020AA
:10277000CDE90146CDE9034505979847204606B0C7
:10278000BDE8F0811846FAE7340D00202DE9F0414C
:10279000804686B012480F4616461D46FFF7FCFBE2
:1027A0000446D8B9AA083146384600F0F3FB0C4875
:1027B000FFF7FBFBD8F8083073B101228DF8002039
:1027C0000C9A05926846CDE90147CDE90365984723
:1027D000204606B0BDE8F0811846FAE71120F8E778
:1027E000340D00202DE9F047B0F806904479D2F876
:1027F00000A09DF8208009FB04F4043C06460AEB87
:102800000300A0420F4688BFA4EB030A191DC2F8BB
:1028100000A0B1FBF9F509FB15114DB9A9EB0104B5
:10282000544528BF5446BAF1000F04D1BDE8F087E3
:102830003668013DF1E704317B1970182246B8F182
:10284000000F0ED001461846AAEB040A23F0D7FF6A
:10285000D145254436684C464FF0000128BF544608
:10286000E1E71946F0E7FFF7A3BBF8B54679014663
:10287000721E0546002393422D6803D30024A6420E
:1028800002D8F8BD0133F6E70F682846FFF7C9FB09
:1028900001343946F3E72DE9F843CD1C868A074613
:1028A000FFF79DFB043E35440446B5FBF6F5F0B159
:1028B0004FF48073EDB28380C680013D076081468E
:1028C0004FF00008A84512D23846FFF788FB0646AD
:1028D00048B163790133637108F10108C9F8000058
:1028E00007608146EEE72046FFF7BFFF34462046EB
:1028F000BDE8F88301210430FFF738BB10B5012192
:1029000004460430FFF73DFB10F0FF0F04D12046D2
:10291000BDE81040FFF7A9BF10BD1FB504AC44F8D7
:10292000042D002200922246FFF75CFF04B010BD88
:102930001FB504AC44F8042D012200922246FFF793
:1029400051FF04B010BD0000064B10B500241C70F0
:10295000054B1C60BFF35F8F0449054800F005F983
:10296000204610BD400D0020440D0020908702003D
:10297000380D002008B50020FFF7BEFAF1EE103A3E
:1029800023F09F03E1EE103ABFF35F8F054B402227
:10299000C3F884210020FFF7B1FA20BF40BF20BF59
:1029A00008BD00BF00E100E002681368526893426E
:1029B00091BFD01A80680130801888BFC01A704754
:1029C0002DE9F84303681D685C68A54284BF8368ED
:1029D00001331746884694BF641B5C1BC26841687C
:1029E000BC42064605FB02110CD37A43404623F055
:1029F00006FFB3683D449D4288BF002533681D60D3
:102A0000BDE8F88304FB02F94A46404623F0F7FE8E
:102A1000F26871683C1B624308EB090023F0EFFE8B
:102A200033681C60ECE7036881681A685B688B4256
:102A300034BF01330023D31A584258417047F8B5C8
:102A4000044600200D46FFF757FA2046FFF7EBFF3C
:102A500010B1237C002B3DD12168A6684B684A68E1
:102A6000B24234BF013200224A6038B12168A06806
:102A70000A68824234BF013200220A60E26860685C
:102A8000511E072920D8DFE801F004101F141F1F72
:102A90001F182A78C2542046FFF786FF23689A68D9
:102AA000824200D29860002415E02A8820F8132082
:102AB000F1E72A6840F82320EDE7D5E9006700EB4D
:102AC000C300C0E90067E6E7294602FB030023F0E4
:102AD00096FEE0E704240020FFF710FA2046F8BD38
:102AE00070B505460E46144682B10020FFF704FA81
:102AF0002846FFF759FFA0420AD32246314628460E
:102B0000FFF75EFF00240020FFF7F8F9204670BDB4
:102B10000524F8E710B504460020FFF7EDF920681A
:102B20000C22002123F08FFE0020BDE81040FFF7AB
:102B3000E5B910B504460020FFF7DEF92046FFF79F
:102B400033FF04460020FFF7D9F9204610BD826804
:102B50000023936082681361826853618268D36046
:102B60008268536082681360704701600B6843603D
:102B70004A68934204BF0023436070470B7B23B134
:102B80004B6803600023037170470B6803600123E7
:102B9000F9E710B503684A688968D41A8C428BBF7C
:102BA0005B1800230360026098BF037110BD10B56D
:102BB00003680A6889689C1A8C428BBF5B1A0123E0
:102BC0000360026098BF037110BD10B5037904461D
:102BD0001BB1FFF7DEFF206810BDFFF7E8FFFAE743
:102BE00038B5084C04F108030546002818BF1C46F8
:102BF00023682BB11A6822605B6828469847F7E77C
:102C000038BD00BF500D002020B9054B01225A707D
:102C1000FFF7E6BF012802D1014A9070F8E770473C
:102C2000480D002038B5094C23786BB9084863601B
:102C3000A3602361E36000F0CDF9054600F0D8F908
:102C400001232370284638BD8525FBE7480D002069
:102C5000092C000038B5134CA378054603F0FF009B
:102C600073B115B16B68012098470020FFF744F954
:102C7000E3680133E3600020BDE83840FFF73EB968
:102C8000FFF73AF925B1226913463BB92A6025615D
:102C9000E368002BECD100F0BDF9E9E79D42F7D0E5
:102CA0001B68F2E7480D002038B5134C63780546E1
:102CB00003F0FF0073B115B16B6800209847002046
:102CC000FFF71AF96368013363600020BDE83840FC
:102CD000FFF714B9FFF710F925B1A26813463BB905
:102CE0002A60A5606368002BECD100F0A5F9E9E744
:102CF0009D42F7D01B68F2E7480D002038B5084C1C
:102D00000020FFF7F9F86368013B6360656815B957
:102D100000F0A4F965700020BDE83840FFF7EEB878
:102D2000480D002007B502A901F8010D0548FFF77D
:102D300086FE0448FFF777FE08B100F073FC03B08D
:102D40005DF804FBDCA2020038B50C4D2B7893B97A
:102D50000B4B0C49002808BF18460388284620F86A
:102D6000013F00F01FFC044618B900F049FC0123A4
:102D70002B70204638BD8524FBE700BFAC0D00203A
:102D8000AB870200252D000008B500F04BFC00F0D9
:102D900051FC0348FFF7BEFE024B00221A7008BD2B
:102DA000DCA20200AC0D002010B504460248FFF77B
:102DB000C0FE207010BD00BFDCA2020010B50A46A4
:102DC00001460448FFF78CFE044600F019FC20463B
:102DD00010BD00BFDCA202001FB503788DF80030E3
:102DE0004368019383688DF80830C3680393054AEC
:102DF000054B684653F8213052F82110984705B02A
:102E00005DF804FBB00D0020B80D00201FB503785D
:102E10008DF800304368019383688DF80830C368EB
:102E20000393054A054B684653F8213052F82110A8
:102E3000984705B05DF804FBB00D0020B80D0020E8
:102E4000F0B5194B0778DFF870E043F82720174BEF
:102E500094460A6943F827204B7F0EF807300C464A
:102E600006460FCC89B06D460FC594E80F0085E883
:102E70000F00337804971EF8033053B1BCF1000FF4
:102E80000B4A694608BF0022301D01F02BF809B03B
:102E9000F0BDBCF1000F074A694608BF002206F1E9
:102EA0000C0000F0F7FDF2E7B80D0020B00D002097
:102EB000D92D00000D2E000044300020074A084B99
:102EC0001360084A03F110011160074A03F1200161
:102ED0001160064A0120C2F804357047F80D002041
:102EE000C80D0020C40D0020C00D002000E00040EF
:102EF00010B5114B04461868884202D0102223F006
:102F00007EFC0E4B0022C3F8002101221A604FF014
:102F10008070D3F8002162B10022C3F80021084B71
:102F20001968A14203D01022204623F068FC01203A
:102F300001E00138EDD110BDC40D002000E00040DB
:102F4000C00D0020024B01461022186823F057BC28
:102F5000F80D0020024AD2F80034002BFBD0704755
:102F600000E001400A4908B50223C1F80435BFF367
:102F70006F8FBFF34F8FC1F80805FFF7EBFF0023FA
:102F8000C1F80435BFF36F8FBFF34F8F08BD00BF8B
:102F900000E001400E4B10B50124C3F80445BFF317
:102FA0006F8FBFF34F8F01EB8204401AA14208D10B
:102FB000074B0022C3F80425BFF36F8FBFF34F8F79
:102FC00010BD431851F8042B1A60FFF7C3FFEDE75B
:102FD00000E00140054A13792BB9012110601171FD
:102FE0005371184670478520704700BFFC0D0020C4
:102FF000074B1A68D2075FBFC02283F80023012263
:103000001A604FF080430122C3F81825704700BFB3
:1030100000E100E0074B00221A6082B01B680193B8
:10302000019B4FF080430222C3F8042301229A60DF
:1030300002B0704704010040074B00221A6082B0C2
:103040001B680193019B4FF080430122C3F80423C6
:103050001A6002B0704700BF00010040074B012218
:103060001A604FF08042D2F80C3403F00113B3F130
:10307000011FF8D0024B00225A7170470400004033
:10308000FC0D002007B5154B1A687AB100221A60B2
:103090001B680093009B4FF080430122C3F8082374
:1030A0000F4B587910B95A711B6898470D4B1A6825
:1030B00082B100221A601B680193019B4FF080438C
:1030C0000222C3F80823064B1B68012003B05DF8F9
:1030D00004EB184703B05DF804FB00BF000100409B
:1030E000FC0D00200401004000F1804000F5C040CC
:1030F000002382B0036003680193019B02B0704714
:1031000003681F2B83BF03F01F03036001484FF0C8
:10311000A04070470003005007B502AB43F8040D10
:103120001846FFF7EDFF019B00EB8300D0F8003756
:1031300023F44033C0F80037D0F8003743EA0141A8
:10314000C0F8001703B05DF804FB0000054B4FF01A
:10315000FF32072843F8202084BF1B1883F858202B
:10316000704700BF040E002010B5164C94F86A306A
:1031700033BBFF21E2180133302B82F83010F9D134
:103180000021C8B2FFF7E2FF01310C29F9D1062274
:1031900000210D4823F057FB0C4BC02283F8062377
:1031A00040221A604FF4BE70FFF79EFF084B4FF0AD
:1031B0000042C3F80423012384F86A30002010BDC4
:1031C0000820FCE7040E0020680E002000E100E06B
:1031D00000600040034B93F86A00003018BF0120E4
:1031E000704700BF040E0020F7B5404F3B1804465F
:1031F00093F93030002B944675DA8B78C3F3400393
:10320000002B15BF0025082508200C20854202D17F
:10321000042003B0F0BD57F8252001324FEA85069F
:1032200049D1381947F825C080F8305013B97B19B7
:1032300083F858408B785A071BD4D8073DD502A88D
:1032400040F8084DFFF75CFF009B00EB8300D0F8CF
:10325000003723F00203C0F800372548E20804F0E5
:10326000070C012303FA0CF310F802C043EA0C0325
:103270008354887891F800C010F002002AD006F13B
:10328000804303F5C0432402D3F8102522F44F32C3
:1032900022F44072C3F810254FEA0C4CD3F81025E5
:1032A00004F47C540CF4403C44EA0C041443C3F88A
:1032B00010450020ADE70135A8E702A84A7840F89C
:1032C000044DFFF71DFF019B03F5E073920040F8EA
:1032D0002320C2E7083D3D4495F8604044EA8C1C39
:1032E00085F860C095E7082093E700BF040E002032
:1032F000680E002073B5224C2518064695F930203B
:10330000072A1ADD224492F858309B09032B10D16A
:1033100002A840F8046DFFF7F3FE019AD0F81035CB
:10332000D340DB0707D402213046FFF7F5FE02B099
:1033300070BD012BF7D00321F6E7D3B2072BF6D8E7
:10334000930003F1804303F5C043D3F8100540F028
:103350000100C3F8100502F14000800080B2FFF7C1
:10336000C3FE0029E3D095F9303054F82330002B08
:10337000DDD0012303FA02F2024BC3F80423D6E79F
:10338000040E00200060004007B502AB43F8040DB6
:103390001846FFF7B5FE019BD0F81005D84000F0A5
:1033A000010003B05DF804FB2DE9F04F002489B063
:1033B000CDE902445F4A604E604D01211368A2F5D9
:1033C000C040012B80B206D1D6F804330B4202D0A4
:1033D000FFF78AFE0C430432AA424FEA4101EDD1C5
:1033E000574B1B68012B0ED14FF4BE70FFF77CFECC
:1033F0004FF0A04344F00044D3F810350293514BF2
:10340000D3F81035039314F0FF0F1AD04E4F002558
:103410000126344210D0AB0003F1804303F5C043D2
:10342000D3F81005D3F8101557F82530C0F3052050
:10343000C1F3014103B198470135082D4FEA460613
:10344000E7D1002C72DA04AE0023049373604FF0CE
:10345000FF33CDE906333C4F4FF0010800252C46E1
:103460007B1993F96020531C47D0D2B222F0C009D7
:1034700008A84FEAD90300EB030B02F007011BF881
:10348000080C08FA01F1084237D007EB090092094D
:1034900090F9300057F820A0BAF1000F05D1032AA7
:1034A0002BD1F05C0843F05401E0032AF9D001A8C5
:1034B000CDF80490FFF724FE019B03F5E07350F86C
:1034C00023301BF8180C0842C3F3014305D0022B2C
:1034D00013D1032A0BD1114604E0032B0DD1032A8B
:1034E00005D102214846FFF717FE0134E4B2BAF1D4
:1034F000000F02D011464846D0470135042DAFD108
:10350000A4B14FF0A0430299D3F8102503F54073FE
:103510009142D3F8103502D10399994206D0029214
:103520000393049A059B0692079397E709B0BDE8B9
:10353000F08F00BF0061004000600040206100404B
:103540007C61004000030050040E0020014B1B680A
:10355000184700BF700E002038B50A4B98420D4640
:103560000CD10020FEF7C8FC074B1C7914B90122CE
:103570001D601A710020FEF7C1FC0CB9002038BD97
:103580001120FCE700200040700E0020034B984201
:1035900001BF034B00221A601A71704700200040DF
:1035A000700E002010B5124C2278FAB9114B196038
:1035B000037813F0010F104B1EBFD3F8042542F01F
:1035C0000102C3F80425D3F8002222F00102C3F857
:1035D00000224378094A5B01DBB282F80D334FF4D5
:1035E0000053136001232370002010BD8520FCE7E9
:1035F0007C0E0020780E002000D0004000E100E0AA
:10360000064B00221A6082B01B680193019B044B99
:103610000122C3F804231A6002B0704700D10040B1
:1036200000D00040024A0123C2F8083353607047BB
:1036300000D00040064A0123C2F808335360054B0E
:103640004FF40052C3F88020034B00221A707047D9
:1036500000D0004000E100E07C0E0020074B00227B
:103660001A6082B01B680193019B054BD3F80805D3
:10367000044B1B68C0B202B0184700BF00D1004025
:1036800000D00040780E0020F7B50679324D0C24AA
:1036900074432F193B7A002B5BD12A514A687A6018
:1036A0009C461A4647790368D4B2A74202F1010248
:1036B00046D81B0BCC78294F5AB2002AAEBF02F174
:1036C000604303F00F03264A4FEA4414E4B2AABF52
:1036D00003F56143D45483F8004303681B0B5CB2C9
:1036E0006409012203F01F0302FA03F347F82430B0
:1036F00007684B78D7F8044503F0030324F003046C
:103700002343C7F8043507688B78D7F8084503F0DA
:10371000030324F003042343C7F8083504680B7837
:10372000D4F8100503F00F0320F00F010B43C4F889
:1037300010350C2303FB065500202A7203B0F0BDA0
:10374000A40004F5A07443F804C01B590193019B25
:10375000A8E70820F2E700BF800E002000E100E0AB
:1037600014ED00E0036801221A600379034A0C217A
:1037700001FB032302221A72704700BF800E002053
:103780000368044901221A6103790C2000FB03132A
:103790001A727047800E002038B503681B0B5AB2AE
:1037A0000121520903F01F0301FA03F320320C49EF
:1037B00041F8223003680025D3F80022C3F80052F4
:1037C00003684FF0FF320446C3F80823FFF7D8FF21
:1037D0002379044A0C2101FB03231D7238BD00BF6D
:1037E00000E100E0800E00200379044A0C2101FB77
:1037F0000323187A831E584258417047800E0020D8
:1038000073B54FF480348C4005688BB101F15003DF
:103810009B000026EE50EB580193019B0368C3F810
:103820000443036801F5A87143F8212002B070BD7C
:10383000C5F80843F5E7F0B407689DF810C0D7F85D
:10384000004240F201158D4024EA0504C7F8004209
:103850000568D5F800422343C5F80032F0BC634642
:10386000FFF7CEBF2DE9F341104C114F114E00254B
:103870004FF48038236804F5C04080B26BB1D7F8AC
:10388000043308FA05F21A4207D0002323602368A4
:103890000193019BD6E9003198470135062D04F1CB
:1038A0000404E7D102B0BDE8F08100BF40A10140AF
:1038B00000A00140800E00200023435082B04358F6
:1038C0000193019B02B070470A4610B54FF48E7108
:1038D000FFF7F2FF136A9168C95C136A0133136240
:1038E000C0F81C1510BD10B58B690A464FF48471E1
:1038F00023B9FFF7E1FFD0F8183510BDFFF7DCFF63
:10390000536AD168D0F81805C854536A013353621A
:10391000F3E700001FB501238DF80030044BCDE91B
:103920000110D3E900126846904705B05DF804FB2A
:103930008C0E002030B54D4AD2F8043313F4007FCA
:1039400085B015464FD0D2F82431002B4BD04FF420
:1039500092711046FFF7B0FF4FF40173C2F80833BD
:10396000434B93F8291009B9012151603F490222C4
:103970008DF80020D1F88024C1F8802403929A6940
:103980000292DA6801920022C3E906226846D3E96E
:10399000001290473548D0F81C315BB134490A6AAF
:1039A0004B699A420A464CD291F82830002B48D1F4
:1039B000FFF78AFF2D4AD2F8443193B14FF4A27138
:1039C0001046FFF779FF2A4B93F8291009B101211E
:1039D00011609A692AB100229A61586AD968FFF782
:1039E00099FF05B030BDD5F804335B07D2D5D5F8C3
:1039F0000831002BCED01E4C1C482146FFF773FF28
:103A0000636AA2699A422346C4D1E26952B123692A
:103A1000E168E3600023606AA261E3616362FFF72B
:103A200079FFB7E794F829200AB901226A600F4AA2
:103A30004FF40171C2F8081300229A61586AD968DC
:103A4000EDE74FF48E710948FFF736FF5169002901
:103A5000B0D00023029191688DF80030019153613C
:103A60006846D2E900139847A4E700BF0020004051
:103A70008C0E00201F2886BF00F01F00044B4FF063
:103A8000A04300F5E070022243F82020704700BFF9
:103A9000000300502DE9F8436C4F067991462C2223
:103AA00002FB0672054692F82A200C46002A40F0D6
:103AB000C68067490068FFF74FFD8046002840F048
:103AC000C18023685A1C19D01F2B4FF001028ABFF6
:103AD00060494FF0A04103F01F0302FA03F3C1F85D
:103AE000083523681F2B86BF03F01F03594A4FF088
:103AF000A04203F5E073032142F8231061684B1CD8
:103B00000BD01F2986BF01F01F01524B4FF0A0437D
:103B100001F5E071002243F821202B68A269C3F867
:103B20002425217D637D2A680B43C2F86C35D4E9D6
:103B300000122B68C3F81425C3F80C15237D012B44
:103B400032D1A168481C0BD01F2986BF01F01F018C
:103B5000404B4FF0A04301F5E071002243F82120D3
:103B6000E3685A1C19D01F2B4FF001028ABF394954
:103B70004FF0A04103F01F0302FA03F3C1F8083528
:103B8000E3681F2B86BF03F01F03324A4FF0A042A9
:103B900003F5E073032142F82310D4E902122B68E5
:103BA000C3F80825C3F810152C237343FA18C2F87C
:103BB00004902269FA50B9F1000F2DD04FF48E71A4
:103BC0002868227FFFF778FE4FF4A2712868FFF77C
:103BD00073FE2B682049C3F804132968090B4BB204
:103BE000002BAEBF03F1604301F00F011B4B4FEA06
:103BF0004212D2B2AABF03F561435A5483F800239C
:103C00002B681B0B5AB2012103F01F0301FA03F3C7
:103C10005209134941F822302B680422C3F80025C9
:103C20002C2303FB06730022C3E9062283F8292014
:103C30005A61012283F82A204046BDE8F8834FF0FC
:103C40000808F9E74FF01108F6E700BF8C0E0020D6
:103C500035390000000300508000020014ED00E040
:103C600000E100E02DE9F04103680479274D0022CE
:103C7000C3F800252C2303FB045301465B6883B182
:103C80000368234AC3F8082303681B0B5AB20120B8
:103C9000520903F01F0300FA03F320321D4840F8D5
:103CA00022300B684FF0FF32D3F80C05D3F814859F
:103CB000D3F80865D3F81075C3F81425C3F80C259C
:103CC0000B689042C3F80825C3F8102501D0FFF710
:103CD000D1FEB8F1FF3F02D04046FFF7CBFE7A1C81
:103CE00002D03846FFF7C6FE731C02D03046FFF7FD
:103CF000C1FE0868FFF74AFC2C2303FB0454002391
:103D000084F82A306360BDE8F08100BF8C0E00208B
:103D10008402020000E100E02DE9F843224B07791C
:103D20004FF02C0909FB0734064665699846002DBB
:103D300035D16261A160256284F828504FF48E71FC
:103D40000068FFF7B9FD336801229A6021463068A8
:103D5000FFF7BAFD6368A1461BBB3568226A636939
:103D60009A4211D33368D3F81C21002AFBD00122D8
:103D7000DA6000202C2303FB078700237B61BDE86A
:103D8000F88394F8283043B9D5F81C31002BF8D0CB
:103D900049462846FFF798FDE0E70F20EAE71120A3
:103DA000EDE72846EBE700BF8C0E002000234350D0
:103DB00082B043580193019B02B070471FB50123A5
:103DC0008DF80030044BCDE90110D3E900126846AC
:103DD000904705B05DF804FBB80E00207FB5374A68
:103DE000D2F82461002E48D010464FF49271FFF7AC
:103DF000DDFF02238DF80030D2F88034C2F8803421
:103E00000393D2F83C3502932D4BDA6801920022DD
:103E1000C3E906226846D3E900129047274AD2F840
:103E200044317BB14FF4A2711046FFF7BFFF244B22
:103E3000996939B10021C3E90611D968D2F83C0566
:103E4000FFF7BCFF1D4AD2F82031A3B14FF49071A7
:103E50001046FFF7ABFF1A4B596961B1D2F84C1508
:103E60000291002299688DF8002001915A616846FC
:103E7000D3E90012904704B070BDD2F81031002B86
:103E8000CCD04FF488711046FFF790FF0C4BD2F85E
:103E90003C0599698842C1D1DC69D96864B1D2F81E
:103EA000005225F02005C2F800521A699C61DA60C0
:103EB000DE61FFF783FFB1E79C61FAE70020004075
:103EC000B80E00201F2886BF00F01F00044B4FF0E3
:103ED000A04300F5E070022243F82020704700BFA5
:103EE000000300502DE9F843704F067991462422D3
:103EF00002FB0672054692F820200C46002A40F08C
:103F0000CE806B490068FFF727FB8046002840F011
:103F1000C98023685A1C19D01F2B4FF001028ABF99
:103F200064494FF0A04103F01F0302FA03F3C1F804
:103F3000083523681F2B86BF03F01F035D4A4FF02F
:103F4000A04203F5E073032142F8231061684B1C83
:103F50000BD01F2986BF01F01F01564B4FF0A04325
:103F600001F5E071002243F821202B68A269C3F813
:103F70002425217D637D2A680B43C2F86C35D4E982
:103F800000212B68C3F80C25C3F81415237D012BE1
:103F900032D1A168481C0BD01F2986BF01F01F0138
:103FA000444B4FF0A04301F5E071002243F821207B
:103FB000E3685A1C19D01F2B4FF001028ABF3D49FC
:103FC0004FF0A04103F01F0302FA03F3C1F80835D4
:103FD000E3681F2B86BF03F01F03364A4FF0A04251
:103FE00003F5E073032142F82310D4E902122B6891
:103FF000C3F80825C3F8101524237343FA18C2F830
:1040000004902269FA50B9F1000F37D04FF488714B
:104010002868227FFFF7CAFE4FF490712868FFF7E7
:10402000C5FE4FF492712868FFF7C0FE4FF4A271ED
:104030002868FFF7BBFE2B681F49C3F804132968E3
:10404000090B4BB2002BAEBF03F1604301F00F012F
:104050001A4B4FEA4212D2B2AABF03F561435A5437
:1040600083F800232B681B0B5AB2012103F01F03B6
:1040700001FA03F35209124941F822302B68082251
:10408000C3F80025242303FB06730022C3E906229C
:104090005A61012283F820204046BDE8F8834FF0A2
:1040A0000808F9E74FF01108F6E700BFB80E002046
:1040B000DD3D0000000300501003020014ED00E09D
:1040C00000E100E02DE9F04103680479274D00226A
:1040D000C3F80025242303FB045301465B6883B126
:1040E0000368234AC3F8082303681B0B5AB2012054
:1040F000520903F01F0300FA03F320321D4840F871
:1041000022300B684FF0FF32D3F80C05D3F814853A
:10411000D3F80865D3F81075C3F80C25C3F8142537
:104120000B689042C3F80825C3F8102501D0FFF7AB
:10413000C9FEB8F1FF3F02D04046FFF7C3FE7A1C2C
:1041400002D03846FFF7BEFE731C02D03046FFF7A0
:10415000B9FE0868FFF71AFA242303FB045400236E
:1041600084F820306360BDE8F08100BFB80E002005
:104170001003020000E100E001F06043B3F1005FD2
:104180002DE9F041064634D11D4B0779242505FB66
:10419000073598466C6974BB6A61A96000684FF482
:1041A0009071FFF703FE4FF4AC713068FFF7FEFD2E
:1041B00033686A69A968C3F84415C3F848253368A9
:1041C00001229A606B68C3B93268D2F82011D2F824
:1041D000583149B9002BF8D00F20242303FB07875F
:1041E00000237B61BDE8F081002B14BF0F2000206D
:1041F000F3E71020F6E71120F4E72046F2E700BFCE
:10420000B80E00200220FCF7CDBE00002DE9F047DB
:1042100081460D46FCF7E0FE0328044604D8012D34
:1042200004D024D3022D2FD0BDE8F087194D4700CC
:104230003A18A918AE5C4A7852B1DFF8688016487F
:1042400042464FF40041FDF7F3FD08B988F80090AD
:104250003B192B449A78114B1A55002EE4D0104B81
:104260001B68002BE0D03046BDE8F04718470A48ED
:10427000FDF720FE074B04EB440213449E78074BE6
:104280001B5DB342D0D1E8E7024B00EB40041C4475
:104290006678E2E7400F0020000F0020590F002051
:1042A000540F0020DC0E002002210078FFF7AEBF83
:1042B00008B5094B1B7853B10020FCF741FE0120E3
:1042C000FCF73EFE0320BDE80840FCF739BEBDE820
:1042D0000840FCF749BE00BFDD0E0020F8B57B4C5E
:1042E000237805461BB100232370FFF7E1FF172D4C
:1042F00000F28880DFE805F00C17174354657680DC
:10430000888D888D959A9A9A9A9AC4C9D1D9E4E4ED
:10431000FFF7CEFF6E48FDF7CDFD6E4B0022044641
:104320001A702046F8BD0020FCF7E2FDF8B100202D
:10433000FCF706FE022D0CBF4FF4E1614FF47A61E9
:10434000644B1D704FF400404FF4FA740025E0FBFD
:1043500001454FF47A7200232046294623F00AFBD8
:10436000002201465A48BDE8F840FDF761BDFCF760
:10437000D3FD022D0CBFC8214FF4C871E0E7002027
:10438000FCF7B6FD40B10020FCF7DAFD4FF44871B0
:10439000504B03221A70D5E7FCF7BEFDC821F7E7A2
:1043A0000020FCF7A5FD38B10020FCF7C9FD4FF453
:1043B0007A61484B0422EDE7FCF7AEFD4FF4C8717B
:1043C000F7E70020FCF794FD48B10020FCF7B8FDAA
:1043D000404B05221A7041F69A110022C2E7FCF701
:1043E0009BFDF5E70020FCF7DDFD3A4B06221A7035
:1043F000002240F6CD41B5E70020FCF78DFD354B9E
:1044000007221A7000248CE701202070FCF7CAFDF7
:10441000EEE701202070FCF7C5FD00224FF480413B
:10442000A0E7FCF7B0FD2B4B0C22EAE72A482B4E05
:10443000FDF740FDD5F1110504461CD0D8B9012D7A
:1044400013D0C8235D434FF400474FF4FA700021A6
:104450004FF47A720023C7FB050123F08BFA224642
:1044600001461D48FDF7E4FC04460220FCF754FD1C
:104470000123337055E70220FCF762FD0023F8E7C3
:10448000FFF716FF134B1222BBE7FFF711FF0020C7
:10449000FCF742FD0F4B1322B3E7FFF709FF0120A2
:1044A000FCF73AFD0B4B1422ABE7FFF701FF0020AE
:1044B000FCF732FD0120FCF72FFD064B1522A0E78B
:1044C000FCF761FD034B1D709CE700BF500F0020FF
:1044D000200F0020580F0020E00E0020DD0E0020ED
:1044E000044B1B68DB0703D5034B1878FFF7F6BEB8
:1044F000704700BF4C0F0020580F002038B51C4BF0
:1045000018601C4B10F00204054619601AD01A4BB3
:104510001A480E221A700F22DA7010229A71112294
:104520005A72042140F26662FDF7C0F9044648B9A8
:10453000FDF710FA044628B90146114A1148FDF763
:1045400065FC0446EB0711D50120FCF757FD6CB95B
:1045500021460D4A0D48FDF759FC044630B90C4A76
:104560000C480121BDE83840FDF750BC204638BD5D
:104570004C0F0020540F0020400F0020EC87020059
:10458000A942000010880200E144000014880200E3
:10459000054200000C88020007B522492248FEF7B8
:1045A00014FB224A0023108040F20241CDE900238F
:1045B0000A2001220BF0BEFC024668B11C4B5B884E
:1045C000022B09D91B481C4B1C491B1ADB081B0476
:1045D00043F00300FCF792FA19491A48FEF7F5FA7E
:1045E000194A0023108040F20341CDE900230A203C
:1045F00001220BF09FFC024680B10D4B5B88022B21
:104600000CD90C480C4B11491B1ADB081B0443F056
:10461000030003B05DF804EBFCF770BA03B05DF87B
:1046200004FB00BFA82B0020B82B0020C22B0020C9
:10463000FC030020F4A202002CA302004488020024
:10464000902B0020A02B0020C02B00206F880200A0
:104650007FB504A9002541F8045D04460FF03CFB3A
:10466000F72206462946204607F0C0F9062EB0F983
:10467000042016D8052E594D28D2032E00F08A802A
:10468000564B5B88022B3BD9554B56485649C01AAE
:10469000C0080004134640F003003246FCF738FA25
:1046A0002EE0132E00F09680142EE9D142B34B4B2E
:1046B0005B88012B24D94A4B4A484C49C01AC00890
:1046C000000440F00200FCF715FA19E06B8812BBF9
:1046D000022B09D94348424B4549C01AC00800047F
:1046E00040F00300FCF706FA0220FCF715FC00225C
:1046F0004FF400413F48FDF79BFB08B1FDF740F93F
:104700003CB14FF498720021204607F06FF906F093
:104710004BFF04B070BD4BB13248314B3649C01A23
:10472000C008000440F00100FCF7E8F90220FCF7A3
:1047300007FC022000F020FE0128E1D06B8863B165
:10474000274B28482D4A2E49C01AC00800044FF4B0
:10475000857340F00100FCF7DBF96B889BB1012009
:10476000FCF78AFC1F4D1E4B2649ED1AED084FF44D
:1047700085732D0401930122204B0093034645EAE3
:104780000200FCF7DBF9FCF729F80028FBD144F61E
:104790002160B3E792B90220FCF7D2FB6B88022BB1
:1047A000AED90F4B0F481849C01A039BC00800042C
:1047B0001A7940F00300FCF7A1F9A1E76B88002B00
:1047C0009ED00848064B1149C01AC008000440F0AA
:1047D0000100F0E70AF062FF92E700BFFC0300204F
:1047E000F4A202002CA3020095890200698902004C
:1047F00097880200C42B0020B3880200D6880200EC
:10480000E688020011890200288902004589020019
:104810007FB5FDF7CBFA08B1FDF7B2F84FF40041D0
:104820000020FBF727FF08B1FDF7AAF8FBF742FECF
:104830006249634800244FF47A63C1E9004332239C
:104840008B600C73FEF79AF95E495F480C734FF466
:104850002F7240F24C43C1E9002305238B60FEF721
:104860008DF921460120FFF749FE08B1FDF788F8D0
:10487000FCF77AFB554A56480121FDF7C7FA08B103
:10488000FDF77EF8534B544C00251D70534B1D8093
:10489000534B1D7007F022FA07F022FA02A8FCF72A
:1048A00053FC02A80AF0F2FF4FF480300BF014F82A
:1048B000284600F0E9F906200AF000F8C3200AF0C3
:1048C00003F828460AF0D6FF29468822204621F020
:1048D000BAFF444800F0F6FA4FF48173238040F6A3
:1048E0000A33638006224049601D21F088FF0623B9
:1048F0000B2623710B223D4904F1250021F07FFF97
:1049000084F8246008223A4904F1450021F077FF39
:104910000823324684F844303649042304F1560013
:1049200084F8543021F06BFF4FF4004149F24D53AD
:1049300047F6FF7284F85560A4F87810A4F87A302E
:10494000A4F880104FF4006348F2010184F8645029
:10495000A4F87650A4F87C20A4F87E30A4F8821045
:10496000A4F88420A4F886300AF0B9FF4542064630
:10497000FDB1214B5B889BB12846FCF77DFB1F4CAA
:104980001F4B2049E41AE40840F265132404019304
:104990001D4B00932A46034644F00100FCF7CEF875
:1049A000FBF71CFF0028FBD1C6F59C402030FCF72C
:1049B000E7FF0AF096FFFBF711FFFAE7A82B0020AC
:1049C000B82B0020902B0020A02B00209945000040
:1049D00040880200C1010020082B0020C2010020F5
:1049E000C401002021010020188802001F88020055
:1049F0002B88020034880200FC0300202CA3020054
:104A0000F4A2020011890200D6880200054B1B683F
:104A1000082B01BF044B1868B0FA80F0400918BF9A
:104A200000207047300100103401001008B54FF02D
:104A300080430022C3F80C21C3F81021C3F83825A5
:104A40004FF0805203F54043D2F80414C3F8201508
:104A5000D2F80814C3F82415D2F80C14C3F828159A
:104A6000D2F81014C3F82C15D2F81414C3F830156A
:104A7000D2F81814C3F83415D2F81C14C3F8401532
:104A8000D2F82014C3F84415D2F82414C3F84815FA
:104A9000D2F82814C3F84C15D2F82C14C3F85015CA
:104AA000D2F83014C3F85415D2F83414C3F8601592
:104AB000D2F83814C3F86415D2F83C14C3F868155A
:104AC000D2F84014C3F86C15D2F84424C3F870250A
:104AD000FFF79CFF10B1384B384A1A60FFF796FF7A
:104AE00018B1374BFB22C3F81825FFF78FFF48B1E9
:104AF0003449354B0A681B6822F00F0203F00F039C
:104B000013430B60FFF782FF18B1304B4FF4007274
:104B10001A604FF08043D3F80024D20744BF6FF0EF
:104B20000102C3F800242A4AD2F8883043F4700303
:104B3000C2F88830BFF34F8FBFF36F8F4FF0102351
:104B4000D3F80022002A03DBD3F80432002B2FDA3B
:104B5000204B0122C3F80425D3F80024002AFBD0FF
:104B60004FF010221221C2F80012D3F80024002ABC
:104B7000FBD04FF010231222C3F80422154B1A4623
:104B8000D3F800140029FBD00021C3F80415D2F893
:104B90000034002BFBD0BFF34F8F0D490E4BCA687A
:104BA00002F4E0621343CB60BFF34F8F00BFFDE719
:104BB0000A4B0B4A1A6008BD8C560040488103001E
:104BC00000F00040E40E0040580200104096024001
:104BD00000ED00E000E001400400FA05BC01002007
:104BE0000090D0037047000070B5064610460D4691
:104BF0000BF009FB012E04462AD003D3022E2DD040
:104C0000002003E010F5004F01D1012070BD012309
:104C10001A4640F2034128460BF077FE4368B3F989
:104C2000003013F5004F01D09C42E9DB0223012242
:104C300040F2034128460BF068FE4368B3F90000D8
:104C400010F5004FE1D08442CCBF00200120DDE709
:104C500047F6FF70201A18BF0120D7E70048F9E790
:104C60000180FFFF07B500230093054A054B012192
:104C700040F203400DF0E4F903B05DF804FB00BF1F
:104C8000E94B0000E54B000007B500BB124B0C22BE
:104C9000C3F824270A22D3F81015013AC1F34021A2
:104CA0000191F8D1019B73B90C4B5B88022B09D998
:104CB0000B480C4B0C49C01AC008000440F003001C
:104CC000FBF718FF0120044B0222C3F8242703B08E
:104CD0005DF804EB0AF0E2BD00030050FC03002085
:104CE0002CA30200F4A20200B589020070B5194C91
:104CF000B4F8FA5584F8063625F00705054305F0A3
:104D0000E70545F48045A4F8FA55DD01022845EA97
:104D1000810134BF0226002641EAC2013143342218
:104D200084F8FC1584F8FD250021122284F8FE2564
:104D300088424FF06C0284F8FF2542F6412218BFEA
:104D40004FF42852A4F80016A4F80226A4F804167A
:104D500070BD00BFA830002030B50A4DB5F8074639
:104D600024F00F04204320F0F00040EA011020F46A
:104D7000706040EA0220C0F30B0040EA0330A5F85F
:104D8000070630BDA830002070B583798B420546F8
:104D90000C46164604D8A9214FF4496006F058FE87
:104DA000043425F8146070BD70B5C3798B42054694
:104DB0000C46164604D8B7214FF4496006F048FE69
:104DC000AB791C44043425F8146070BD70B51C4DDB
:104DD0001C4E95F80E260023082102F0F00285F8FB
:104DE0000F1663F30712092185F80936A5F80A366C
:104DF000A5F80C3685F8101685F80E2685F84C3681
:104E00001C4605F2096536F81420E1B22846013443
:104E1000FFF7BAFF082CF6D10B4E0C4D0024325D83
:104E2000E1B228460134FFF7BFFF092CF7D10C236C
:104E3000032207210020BDE87040FFF78DBF00BFAF
:104E4000A8300020DC890200EC890200B136002085
:104E500008B50A4B93F87921003218BF0122114698
:104E600001230220FFF742FF01220C2311460020FC
:104E7000FFF772FFBDE80840FFF7A8BFA830002089
:104E800007B50F4B93F84C26052A0AD8511C83F816
:104E90004C1603EB8203C3F83406002003B05DF820
:104EA00004FB0423019200934FF0FF3040F21913EA
:104EB0004FF4496201210AF055FB6FF01C00EDE749
:104EC000A83000202DE9F7430AF0C8FD0BF080FB65
:104ED00083681B780193042300934FF4496240F2E6
:104EE000271301214FF0FF300AF03CFB00260BF0A6
:104EF0006FFB83681B78F4B2A3420CD80AF0D2FD92
:104F000000286CD140F23F114FF4496003B0BDE876
:104F1000F04306F09DBD0BF05BFB8368D3F80130D6
:104F200053F82430D3F81500FFF7AAFF0BF050FB1D
:104F3000D0F8B030A50063B10BF04AFBD0F8B070E8
:104F40000BF046FB8368D3F8013053F8243018780F
:104F5000B84700270BF03CFB8368D3F801305B595E
:104F60001B7CFCB2A34201D80136C0E70BF030FB3A
:104F70008368D3F801305B59D3F81130C4EB0414C3
:104F80002344D3F80B305BB10BF022FB8368D3F8DA
:104F900001305B59D3F811302344D3F80B309847D4
:104FA0000BF016FB8368D3F801305B5993F800804F
:104FB0000BF00EFB8368D3F801305B59B3F8019016
:104FC0000BF006FB8368D3F801305B59D3F811204E
:104FD0004946224440460EF003F80137BAE703B0D1
:104FE000BDE8F08313B540F219224FF4D5710446A1
:104FF00006F0FCFC052106F035FC0A4BD3F8D42260
:10500000026093F8DC22027193F84D2683F8502653
:10501000002300931A462146034809F0FDFE02B022
:1050200010BD00BFA8300020D16100002DE9F34180
:10503000694D95F8DD3204462E46F3B995F8C6223F
:10504000402A13D095F8E522C5F8D432012161F346
:10505000430285F8C7120146604885F8E5220093AF
:105060001A4609F0D9FE02B0BDE8F08185F8DD22CC
:1050700000931A4621465A48F3E7402B05D10023F6
:10508000014600931A465748EBE7102B20D1202306
:1050900085F8DD3295F8C732012B08D195F8EB324F
:1050A000002262F3000385F8C72285F8EB3296F8F8
:1050B000E7120D29D7D096F8C72200235242204686
:1050C0000EF03AFB002300931A4621464648C8E7F3
:1050D00095F8C6221A40D10705D500230146009352
:1050E0001A464248BDE712F0020164D012F0F8FC03
:1050F0000746002853D195F8C782B8F1030F0DD1A8
:1051000095F8C832DB0727D50A230146204685F8E3
:105110007C3102B0BDE8F04102F0B4BEB8F10A0F34
:105120001AD11023DB224FF4D571204685F8DD32E9
:1051300006F05CFC414606F095FB0822394606461F
:1051400021F081FB20463772777285F87C8102B0AE
:10515000BDE8F04104F0BCB896F8C81211F00101A6
:105160000AD096F8DD3213F0020381D000230093B9
:105170001A4621461E4874E796F8EB2212F0020305
:1051800008D0102386F8DD32032386F8C732009159
:105190000B466EE700931A462146164861E74FF426
:1051A00086724FF4D571204606F020FC02B0BDE8AF
:1051B000F04106F0F9B91F2B03D85A0085F8DD221B
:1051C000E5E7202385F8DD3200283FF44CAF40F2BC
:1051D0002F124FF4D571E7E7A83000204D5500009D
:1051E0002D500000215B0000AD490100295C00004A
:1051F000F1520000F951000037B53A4C94F8E5320D
:1052000003F00E010229054638D1D4F8CC22AAB306
:1052100094F8452212F0010230D162F3430384F87E
:10522000E532012384F8C7320FF0DAFC10B394F8AA
:10523000B536012B1ED1D4F8D422DAB994F87A21EC
:1052400003FA02F2C4F8D42294F8E52263F343028D
:1052500084F8E522D4F8D4321BB9D4F8CC32C4F89F
:10526000D4320023204800931A46294609F0D4FD81
:1052700003B030BD0023C4F8D432EBE794F84532D4
:10528000DB0719D479B9D4F8D032ABB194F8E53250
:10529000032262F3430384F8E532012384F8C73222
:1052A000D4F8D032DBE7022906D1D4F8D0321BB1D2
:1052B000D4F8CC32002BE9D0032384F8C73294F819
:1052C000E5320A48012262F3430384F8E53294F898
:1052D000DD32934084F8DD32002300931A462946DC
:1052E000C4E700BFA8300020E54F00002D500000AB
:1052F00038B540F28A224FF4D571054606F076FBA8
:10530000042106F0AFFA00210446042221F09BFAA2
:105310006FF0030323704FF0FF336370B423A37067
:105320000123E37028460249BDE8384011F0FEBA77
:105330003553000013B54FF427724FF4D57104466E
:1053400006F054FBB0F90420094B12B1092283F88E
:10535000C72293F8DD22520083F8DD2234B1002306
:1053600000931A462146034809F056FD02B010BDCD
:10537000A83000202D50000007B5144A92F8DD3205
:1053800013F0DF0320D182F8DD3292F8C83282F8C0
:10539000C60213F0010309D100931A4619460C48BE
:1053A00009F03AFD012003B05DF804FB022807D1A3
:1053B000012382F8C7320A2382F8DD0282F8E7323D
:1053C000044806F0ECF8EDE70020ECE7A8300020F8
:1053D0000D3C01002D50000008B50B4B93F8452201
:1053E000520706D413F02AF8437843F001034370C0
:1053F00008BD93F8B93B9B07F4D413F01FF843782A
:1054000023F00103F3E700BFA830002070B54A4C39
:1054100086B0FFF7E1FF94F8EB3202216FF38203CD
:1054200004F5157084F8EB3212F0D0FD002864D03A
:1054300094F8EB3243F0040384F8EB3294F8E03054
:105440003E493F48032B08BF02234FF0080208BF24
:1054500084F8E03021F0C4F9002864D094F8845333
:10546000C5F3800594F88032142B5ED8EDB26DB18F
:1054700008223449344821F0B3F994F8E532B0FAFF
:1054800080F0400960F3000384F8E53294F8EB32D1
:1054900065F3410384F8EB322DB112F0CFFF43786E
:1054A00023F00103437094F8E5322449244894F82A
:1054B000E06043F08003082284F8E53221F090F99F
:1054C00094F8EB320295C3F38003059394F8843388
:1054D00001960030C3F3800318BF01200493142306
:1054E000039000934FF4D5724FF4D07301214FF025
:1054F000FF300AF037F806B070BD082204F5B87125
:1055000004F5157021F06CF9002891D094F8E5327B
:10551000DB078DD408220B4904F5157021F060F9E2
:10552000002885D08AE705469CE7002D9ED094F898
:10553000EB52C5F3800599E7A83000201D900200CA
:105540008031002015900200FC32002037B505465E
:10555000FFF75CFF4C4B93F8EB2212F0020F1C4656
:1055600030D093F8C822D20713D593F8C622042A64
:105570000FD10B2283F8E722102283F8DD22002DC1
:105580006BD0002300931A462946404809F044FC9A
:1055900063E094F8C632012B0DD04FF4E9724FF45A
:1055A000D571284606F022FA0123D4F8482238495A
:1055B0000EF088FC0025062384F8E732012384F8E6
:1055C000DD32DCE70822334903F1D80021F008F985
:1055D00010BB94F8843358071ED494F8EB32590763
:1055E00005D494F8C632042B39D10B23E4E7082202
:1055F00004F5B87104F5157021F0F2F80028F0D028
:1056000094F8E532DA07ECD40822234904F5157042
:1056100021F0E6F80028E4D008221E491C4821F0B9
:10562000DFF8F0B194F88032142B03D994F8EB3200
:105630005B0716D54FF4FF724FF4D571284606F07C
:10564000D5F90023D4F8482211490EF03BFC06237B
:1056500084F8E732012384F8DD3203B030BD05233E
:10566000AAE7002400944FF402734FF4D57201218D
:105670004FF0FF3009F076FF2146284603B0BDE821
:10568000304002F0FFBB00BFA83000202D500000CA
:10569000803100201D9002001590020038B50221D3
:1056A0001B481C4C12F092FCB0B1012508221A498B
:1056B0001A4821F095F818B194F88403C0F38000DB
:1056C00094F88032142B1ED894F8EB32C0B260F3F9
:1056D000410384F8EB3238BD04F5B871082201F1BA
:1056E000E40021F07DF80028DFD094F8E532DB07F4
:1056F000DBD408220A4904F5157021F071F8B0FADC
:1057000080F56D09D2E7002818BF2846DCE700BF06
:10571000FC320020A83000201D90020080310020C3
:105720001590020007B5164B93F8DD1220291A4692
:105730001AD0082918D093F8C7120A2905D11148A0
:1057400003B05DF804EB05F02ABF03290CD1012258
:1057500083F8C722002300931A4619460A4809F025
:105760005BFB03B05DF804FB202382F8DD320323EA
:1057700082F8C73203B05DF804EB0EF0D7BA00BF71
:10578000A83000202D5000000D3C010070B5C22251
:1057900040F60901104C054606F028F912F04EFEBD
:1057A00094F87A3180F85430D822022340F6090167
:1057B000284684F8E03006F019F994F8843394F818
:1057C0007A21012101FA02F2C3F3800304F1D80126
:1057D000BDE870400EF076BBA830002037B50B4C0A
:1057E0004FF6FF730546A4F86C3109F0D1F8084B69
:1057F00000930130A4F86E01022304F5B772502122
:10580000284603F0B7FF03B030BD00BFA83000202A
:105810004D840100F7B5704C94F8E532C3F34203B0
:105820000546052B00F2C980DFE803F04003C7609E
:1058300095A294F844315B0706D0684812F0F8F955
:1058400010B1664812F08AF9052384F8E93294F819
:10585000E532002666F3430384F8E532012784F835
:10586000C77284F8EA6212F0EDFD4FF4907231468F
:1058700020F0E9FF12F0E6FD076012F0E3FD0223DD
:10588000036194F8E632564A13F0010F09BFD4F8C9
:105890004832C4F8D4221340C4F8D432002351480B
:1058A00000931A46294609F0B7FA42E094F9E53226
:1058B000002B1BDA94F8E6324B4A13F0010F0ABFB3
:1058C000D4F84832C4F8D422134094F8E52208BF33
:1058D000C4F8D4320321012384F8E93261F343028E
:1058E000002384F8EA3284F8E522D8E712F0AAFD12
:1058F000067D06BB092384F8E732082384F8C73203
:1059000094F8DD325B0084F8DD3212F097FD90F8F8
:105910005530002B48D012F091FD90F8553084F8A6
:105920007A31324B0093324A01233146284603F044
:1059300021FF03B0F0BD94F8E532042262F3430383
:1059400084F8E53212F07EFD002343751A46009379
:1059500029462848A7E794F8E532052262F3430375
:1059600084F8E5320023014600931A4622489AE75C
:10597000092340F29D1240F6090184F8E73206F04F
:1059800035F8B0F90430A3B1042384F8C73294F891
:10599000DD325B0084F8DD3294F8E532012262F3F7
:1059A000430384F8E532002300931A4629460F4842
:1059B00079E784F8C7321023ECE7002440F2B113F2
:1059C000009440F6090201214FF0FF3009F0CAFDB2
:1059D00000942346E9E700BFA83000208C31002066
:1059E00000881002295A00000070EF052D500000B9
:1059F00022320020658C01006187010008B54FF458
:105A0000F17240F6090105F0F1FF054913F014FFAA
:105A1000102200210348BDE8084009F077BA00BF12
:105A2000D15A0000295A0000F7B528B9234803B01D
:105A3000BDE8F04005F0B3BD214B93F8E92202B375
:105A4000013A83F8E922D3F8D46293F8EA120024E9
:105A50000127CAB21F2A27D807FA01F5354201F1FA
:105A6000010114D00CB183F8EA2293F87A11914223
:105A70000FD100230146134800931A4609F0CCF9D0
:105A800010E093F8EA22013283F8EA22DBE70124EE
:105A9000DFE783F87A210B4B00930B4A01230021A7
:105AA00003F068FE03B0F0BD0CB183F8EA220023D6
:105AB000014600931A460548E0E700BF295A000056
:105AC000A8300020FD590000223200202D50000097
:105AD00013B540F2E91240F60901044605F086FFCD
